{
	"contracts/IoTDeviceAuth.sol": {
		"IoTDeviceAuth": {
			"abi": [
				{
					"anonymous": false,
					"inputs": [
						{
							"indexed": true,
							"internalType": "bytes32",
							"name": "deviceId",
							"type": "bytes32"
						}
					],
					"name": "DeviceRegistered",
					"type": "event"
				},
				{
					"anonymous": false,
					"inputs": [
						{
							"indexed": true,
							"internalType": "bytes32",
							"name": "deviceId",
							"type": "bytes32"
						}
					],
					"name": "DeviceUnregistered",
					"type": "event"
				},
				{
					"inputs": [
						{
							"internalType": "bytes32",
							"name": "deviceId",
							"type": "bytes32"
						}
					],
					"name": "checkDevice",
					"outputs": [
						{
							"internalType": "bool",
							"name": "",
							"type": "bool"
						}
					],
					"stateMutability": "view",
					"type": "function"
				},
				{
					"inputs": [
						{
							"internalType": "bytes32",
							"name": "",
							"type": "bytes32"
						}
					],
					"name": "isRegistered",
					"outputs": [
						{
							"internalType": "bool",
							"name": "",
							"type": "bool"
						}
					],
					"stateMutability": "view",
					"type": "function"
				},
				{
					"inputs": [
						{
							"internalType": "bytes32",
							"name": "deviceId",
							"type": "bytes32"
						}
					],
					"name": "registerDevice",
					"outputs": [],
					"stateMutability": "nonpayable",
					"type": "function"
				},
				{
					"inputs": [
						{
							"internalType": "bytes32",
							"name": "deviceId",
							"type": "bytes32"
						}
					],
					"name": "unregisterDevice",
					"outputs": [],
					"stateMutability": "nonpayable",
					"type": "function"
				}
			],
			"devdoc": {
				"details": "Manages authentication and registration of IoT devices.",
				"kind": "dev",
				"methods": {
					"checkDevice(bytes32)": {
						"details": "Checks if a device is registered.",
						"params": {
							"deviceId": "The unique identifier of the device."
						},
						"returns": {
							"_0": "bool True if the device is registered, false otherwise."
						}
					},
					"registerDevice(bytes32)": {
						"details": "Registers a new IoT device.",
						"params": {
							"deviceId": "The unique identifier of the device."
						}
					},
					"unregisterDevice(bytes32)": {
						"details": "Unregisters an IoT device.",
						"params": {
							"deviceId": "The unique identifier of the device."
						}
					}
				},
				"title": "IoTDeviceAuth",
				"version": 1
			},
			"evm": {
				"assembly": "    /* \"contracts/IoTDeviceAuth.sol\":155:1443  contract IoTDeviceAuth {... */\n  mstore(0x40, 0x80)\n  callvalue\n  dup1\n  iszero\n  tag_1\n  jumpi\n  0x00\n  dup1\n  revert\ntag_1:\n  pop\n  dataSize(sub_0)\n  dup1\n  dataOffset(sub_0)\n  0x00\n  codecopy\n  0x00\n  return\nstop\n\nsub_0: assembly {\n        /* \"contracts/IoTDeviceAuth.sol\":155:1443  contract IoTDeviceAuth {... */\n      mstore(0x40, 0x80)\n      callvalue\n      dup1\n      iszero\n      tag_1\n      jumpi\n      0x00\n      dup1\n      revert\n    tag_1:\n      pop\n      jumpi(tag_2, lt(calldatasize, 0x04))\n      shr(0xe0, calldataload(0x00))\n      dup1\n      0x921e69\n      eq\n      tag_3\n      jumpi\n      dup1\n      0x15664880\n      eq\n      tag_4\n      jumpi\n      dup1\n      0x27258b22\n      eq\n      tag_5\n      jumpi\n      dup1\n      0x882ec35a\n      eq\n      tag_6\n      jumpi\n    tag_2:\n      0x00\n      dup1\n      revert\n        /* \"contracts/IoTDeviceAuth.sol\":1329:1441  function checkDevice(bytes32 deviceId) public view returns (bool) {... */\n    tag_3:\n      tag_7\n      0x04\n      dup1\n      calldatasize\n      sub\n      dup2\n      add\n      swap1\n      tag_8\n      swap2\n      swap1\n      tag_9\n      jump\t// in\n    tag_8:\n      tag_10\n      jump\t// in\n    tag_7:\n      mload(0x40)\n      tag_11\n      swap2\n      swap1\n      tag_12\n      jump\t// in\n    tag_11:\n      mload(0x40)\n      dup1\n      swap2\n      sub\n      swap1\n      return\n        /* \"contracts/IoTDeviceAuth.sol\":920:1130  function unregisterDevice(bytes32 deviceId) external {... */\n    tag_4:\n      tag_13\n      0x04\n      dup1\n      calldatasize\n      sub\n      dup2\n      add\n      swap1\n      tag_14\n      swap2\n      swap1\n      tag_9\n      jump\t// in\n    tag_14:\n      tag_15\n      jump\t// in\n    tag_13:\n      stop\n        /* \"contracts/IoTDeviceAuth.sol\":235:279  mapping(bytes32 => bool) public isRegistered */\n    tag_5:\n      tag_16\n      0x04\n      dup1\n      calldatasize\n      sub\n      dup2\n      add\n      swap1\n      tag_17\n      swap2\n      swap1\n      tag_9\n      jump\t// in\n    tag_17:\n      tag_18\n      jump\t// in\n    tag_16:\n      mload(0x40)\n      tag_19\n      swap2\n      swap1\n      tag_12\n      jump\t// in\n    tag_19:\n      mload(0x40)\n      dup1\n      swap2\n      sub\n      swap1\n      return\n        /* \"contracts/IoTDeviceAuth.sol\":589:799  function registerDevice(bytes32 deviceId) external {... */\n    tag_6:\n      tag_20\n      0x04\n      dup1\n      calldatasize\n      sub\n      dup2\n      add\n      swap1\n      tag_21\n      swap2\n      swap1\n      tag_9\n      jump\t// in\n    tag_21:\n      tag_22\n      jump\t// in\n    tag_20:\n      stop\n        /* \"contracts/IoTDeviceAuth.sol\":1329:1441  function checkDevice(bytes32 deviceId) public view returns (bool) {... */\n    tag_10:\n        /* \"contracts/IoTDeviceAuth.sol\":1389:1393  bool */\n      0x00\n        /* \"contracts/IoTDeviceAuth.sol\":1412:1424  isRegistered */\n      dup1\n        /* \"contracts/IoTDeviceAuth.sol\":1412:1434  isRegistered[deviceId] */\n      0x00\n        /* \"contracts/IoTDeviceAuth.sol\":1425:1433  deviceId */\n      dup4\n        /* \"contracts/IoTDeviceAuth.sol\":1412:1434  isRegistered[deviceId] */\n      dup2\n      mstore\n      0x20\n      add\n      swap1\n      dup2\n      mstore\n      0x20\n      add\n      0x00\n      keccak256\n      0x00\n      swap1\n      sload\n      swap1\n      0x0100\n      exp\n      swap1\n      div\n      0xff\n      and\n        /* \"contracts/IoTDeviceAuth.sol\":1405:1434  return isRegistered[deviceId] */\n      swap1\n      pop\n        /* \"contracts/IoTDeviceAuth.sol\":1329:1441  function checkDevice(bytes32 deviceId) public view returns (bool) {... */\n      swap2\n      swap1\n      pop\n      jump\t// out\n        /* \"contracts/IoTDeviceAuth.sol\":920:1130  function unregisterDevice(bytes32 deviceId) external {... */\n    tag_15:\n        /* \"contracts/IoTDeviceAuth.sol\":991:1003  isRegistered */\n      0x00\n        /* \"contracts/IoTDeviceAuth.sol\":991:1013  isRegistered[deviceId] */\n      dup1\n        /* \"contracts/IoTDeviceAuth.sol\":1004:1012  deviceId */\n      dup3\n        /* \"contracts/IoTDeviceAuth.sol\":991:1013  isRegistered[deviceId] */\n      dup2\n      mstore\n      0x20\n      add\n      swap1\n      dup2\n      mstore\n      0x20\n      add\n      0x00\n      keccak256\n      0x00\n      swap1\n      sload\n      swap1\n      0x0100\n      exp\n      swap1\n      div\n      0xff\n      and\n        /* \"contracts/IoTDeviceAuth.sol\":983:1040  require(isRegistered[deviceId], \"Device not registered.\") */\n      tag_25\n      jumpi\n      mload(0x40)\n      0x08c379a000000000000000000000000000000000000000000000000000000000\n      dup2\n      mstore\n      0x04\n      add\n      tag_26\n      swap1\n      tag_27\n      jump\t// in\n    tag_26:\n      mload(0x40)\n      dup1\n      swap2\n      sub\n      swap1\n      revert\n    tag_25:\n        /* \"contracts/IoTDeviceAuth.sol\":1075:1080  false */\n      0x00\n        /* \"contracts/IoTDeviceAuth.sol\":1050:1062  isRegistered */\n      dup1\n        /* \"contracts/IoTDeviceAuth.sol\":1050:1072  isRegistered[deviceId] */\n      0x00\n        /* \"contracts/IoTDeviceAuth.sol\":1063:1071  deviceId */\n      dup4\n        /* \"contracts/IoTDeviceAuth.sol\":1050:1072  isRegistered[deviceId] */\n      dup2\n      mstore\n      0x20\n      add\n      swap1\n      dup2\n      mstore\n      0x20\n      add\n      0x00\n      keccak256\n      0x00\n        /* \"contracts/IoTDeviceAuth.sol\":1050:1080  isRegistered[deviceId] = false */\n      0x0100\n      exp\n      dup2\n      sload\n      dup2\n      0xff\n      mul\n      not\n      and\n      swap1\n      dup4\n      iszero\n      iszero\n      mul\n      or\n      swap1\n      sstore\n      pop\n        /* \"contracts/IoTDeviceAuth.sol\":1114:1122  deviceId */\n      dup1\n        /* \"contracts/IoTDeviceAuth.sol\":1095:1123  DeviceUnregistered(deviceId) */\n      0x0bbce76f14864532511f1587f2809baad3cfe64edb5f1bab3c95f4949d9c0ef0\n      mload(0x40)\n      mload(0x40)\n      dup1\n      swap2\n      sub\n      swap1\n      log2\n        /* \"contracts/IoTDeviceAuth.sol\":920:1130  function unregisterDevice(bytes32 deviceId) external {... */\n      pop\n      jump\t// out\n        /* \"contracts/IoTDeviceAuth.sol\":235:279  mapping(bytes32 => bool) public isRegistered */\n    tag_18:\n      mstore(0x20, 0x00)\n      dup1\n      0x00\n      mstore\n      keccak256(0x00, 0x40)\n      0x00\n      swap2\n      pop\n      sload\n      swap1\n      0x0100\n      exp\n      swap1\n      div\n      0xff\n      and\n      dup2\n      jump\t// out\n        /* \"contracts/IoTDeviceAuth.sol\":589:799  function registerDevice(bytes32 deviceId) external {... */\n    tag_22:\n        /* \"contracts/IoTDeviceAuth.sol\":659:671  isRegistered */\n      0x00\n        /* \"contracts/IoTDeviceAuth.sol\":659:681  isRegistered[deviceId] */\n      dup1\n        /* \"contracts/IoTDeviceAuth.sol\":672:680  deviceId */\n      dup3\n        /* \"contracts/IoTDeviceAuth.sol\":659:681  isRegistered[deviceId] */\n      dup2\n      mstore\n      0x20\n      add\n      swap1\n      dup2\n      mstore\n      0x20\n      add\n      0x00\n      keccak256\n      0x00\n      swap1\n      sload\n      swap1\n      0x0100\n      exp\n      swap1\n      div\n      0xff\n      and\n        /* \"contracts/IoTDeviceAuth.sol\":658:681  !isRegistered[deviceId] */\n      iszero\n        /* \"contracts/IoTDeviceAuth.sol\":650:712  require(!isRegistered[deviceId], \"Device already registered.\") */\n      tag_29\n      jumpi\n      mload(0x40)\n      0x08c379a000000000000000000000000000000000000000000000000000000000\n      dup2\n      mstore\n      0x04\n      add\n      tag_30\n      swap1\n      tag_31\n      jump\t// in\n    tag_30:\n      mload(0x40)\n      dup1\n      swap2\n      sub\n      swap1\n      revert\n    tag_29:\n        /* \"contracts/IoTDeviceAuth.sol\":747:751  true */\n      0x01\n        /* \"contracts/IoTDeviceAuth.sol\":722:734  isRegistered */\n      0x00\n        /* \"contracts/IoTDeviceAuth.sol\":722:744  isRegistered[deviceId] */\n      dup1\n        /* \"contracts/IoTDeviceAuth.sol\":735:743  deviceId */\n      dup4\n        /* \"contracts/IoTDeviceAuth.sol\":722:744  isRegistered[deviceId] */\n      dup2\n      mstore\n      0x20\n      add\n      swap1\n      dup2\n      mstore\n      0x20\n      add\n      0x00\n      keccak256\n      0x00\n        /* \"contracts/IoTDeviceAuth.sol\":722:751  isRegistered[deviceId] = true */\n      0x0100\n      exp\n      dup2\n      sload\n      dup2\n      0xff\n      mul\n      not\n      and\n      swap1\n      dup4\n      iszero\n      iszero\n      mul\n      or\n      swap1\n      sstore\n      pop\n        /* \"contracts/IoTDeviceAuth.sol\":783:791  deviceId */\n      dup1\n        /* \"contracts/IoTDeviceAuth.sol\":766:792  DeviceRegistered(deviceId) */\n      0x543b01d8fc03bd0f400fb055a7c379dc964b3c478f922bb2e198fa9bccb8e714\n      mload(0x40)\n      mload(0x40)\n      dup1\n      swap2\n      sub\n      swap1\n      log2\n        /* \"contracts/IoTDeviceAuth.sol\":589:799  function registerDevice(bytes32 deviceId) external {... */\n      pop\n      jump\t// out\n        /* \"#utility.yul\":88:205   */\n    tag_33:\n        /* \"#utility.yul\":197:198   */\n      0x00\n        /* \"#utility.yul\":194:195   */\n      dup1\n        /* \"#utility.yul\":187:199   */\n      revert\n        /* \"#utility.yul\":334:411   */\n    tag_35:\n        /* \"#utility.yul\":371:378   */\n      0x00\n        /* \"#utility.yul\":400:405   */\n      dup2\n        /* \"#utility.yul\":389:405   */\n      swap1\n      pop\n        /* \"#utility.yul\":334:411   */\n      swap2\n      swap1\n      pop\n      jump\t// out\n        /* \"#utility.yul\":417:539   */\n    tag_36:\n        /* \"#utility.yul\":490:514   */\n      tag_51\n        /* \"#utility.yul\":508:513   */\n      dup2\n        /* \"#utility.yul\":490:514   */\n      tag_35\n      jump\t// in\n    tag_51:\n        /* \"#utility.yul\":483:488   */\n      dup2\n        /* \"#utility.yul\":480:515   */\n      eq\n        /* \"#utility.yul\":470:533   */\n      tag_52\n      jumpi\n        /* \"#utility.yul\":529:530   */\n      0x00\n        /* \"#utility.yul\":526:527   */\n      dup1\n        /* \"#utility.yul\":519:531   */\n      revert\n        /* \"#utility.yul\":470:533   */\n    tag_52:\n        /* \"#utility.yul\":417:539   */\n      pop\n      jump\t// out\n        /* \"#utility.yul\":545:684   */\n    tag_37:\n        /* \"#utility.yul\":591:596   */\n      0x00\n        /* \"#utility.yul\":629:635   */\n      dup2\n        /* \"#utility.yul\":616:636   */\n      calldataload\n        /* \"#utility.yul\":607:636   */\n      swap1\n      pop\n        /* \"#utility.yul\":645:678   */\n      tag_54\n        /* \"#utility.yul\":672:677   */\n      dup2\n        /* \"#utility.yul\":645:678   */\n      tag_36\n      jump\t// in\n    tag_54:\n        /* \"#utility.yul\":545:684   */\n      swap3\n      swap2\n      pop\n      pop\n      jump\t// out\n        /* \"#utility.yul\":690:1019   */\n    tag_9:\n        /* \"#utility.yul\":749:755   */\n      0x00\n        /* \"#utility.yul\":798:800   */\n      0x20\n        /* \"#utility.yul\":786:795   */\n      dup3\n        /* \"#utility.yul\":777:784   */\n      dup5\n        /* \"#utility.yul\":773:796   */\n      sub\n        /* \"#utility.yul\":769:801   */\n      slt\n        /* \"#utility.yul\":766:885   */\n      iszero\n      tag_56\n      jumpi\n        /* \"#utility.yul\":804:883   */\n      tag_57\n      tag_33\n      jump\t// in\n    tag_57:\n        /* \"#utility.yul\":766:885   */\n    tag_56:\n        /* \"#utility.yul\":924:925   */\n      0x00\n        /* \"#utility.yul\":949:1002   */\n      tag_58\n        /* \"#utility.yul\":994:1001   */\n      dup5\n        /* \"#utility.yul\":985:991   */\n      dup3\n        /* \"#utility.yul\":974:983   */\n      dup6\n        /* \"#utility.yul\":970:992   */\n      add\n        /* \"#utility.yul\":949:1002   */\n      tag_37\n      jump\t// in\n    tag_58:\n        /* \"#utility.yul\":939:1002   */\n      swap2\n      pop\n        /* \"#utility.yul\":895:1012   */\n      pop\n        /* \"#utility.yul\":690:1019   */\n      swap3\n      swap2\n      pop\n      pop\n      jump\t// out\n        /* \"#utility.yul\":1025:1115   */\n    tag_38:\n        /* \"#utility.yul\":1059:1066   */\n      0x00\n        /* \"#utility.yul\":1102:1107   */\n      dup2\n        /* \"#utility.yul\":1095:1108   */\n      iszero\n        /* \"#utility.yul\":1088:1109   */\n      iszero\n        /* \"#utility.yul\":1077:1109   */\n      swap1\n      pop\n        /* \"#utility.yul\":1025:1115   */\n      swap2\n      swap1\n      pop\n      jump\t// out\n        /* \"#utility.yul\":1121:1230   */\n    tag_39:\n        /* \"#utility.yul\":1202:1223   */\n      tag_61\n        /* \"#utility.yul\":1217:1222   */\n      dup2\n        /* \"#utility.yul\":1202:1223   */\n      tag_38\n      jump\t// in\n    tag_61:\n        /* \"#utility.yul\":1197:1200   */\n      dup3\n        /* \"#utility.yul\":1190:1224   */\n      mstore\n        /* \"#utility.yul\":1121:1230   */\n      pop\n      pop\n      jump\t// out\n        /* \"#utility.yul\":1236:1446   */\n    tag_12:\n        /* \"#utility.yul\":1323:1327   */\n      0x00\n        /* \"#utility.yul\":1361:1363   */\n      0x20\n        /* \"#utility.yul\":1350:1359   */\n      dup3\n        /* \"#utility.yul\":1346:1364   */\n      add\n        /* \"#utility.yul\":1338:1364   */\n      swap1\n      pop\n        /* \"#utility.yul\":1374:1439   */\n      tag_63\n        /* \"#utility.yul\":1436:1437   */\n      0x00\n        /* \"#utility.yul\":1425:1434   */\n      dup4\n        /* \"#utility.yul\":1421:1438   */\n      add\n        /* \"#utility.yul\":1412:1418   */\n      dup5\n        /* \"#utility.yul\":1374:1439   */\n      tag_39\n      jump\t// in\n    tag_63:\n        /* \"#utility.yul\":1236:1446   */\n      swap3\n      swap2\n      pop\n      pop\n      jump\t// out\n        /* \"#utility.yul\":1452:1621   */\n    tag_40:\n        /* \"#utility.yul\":1536:1547   */\n      0x00\n        /* \"#utility.yul\":1570:1576   */\n      dup3\n        /* \"#utility.yul\":1565:1568   */\n      dup3\n        /* \"#utility.yul\":1558:1577   */\n      mstore\n        /* \"#utility.yul\":1610:1614   */\n      0x20\n        /* \"#utility.yul\":1605:1608   */\n      dup3\n        /* \"#utility.yul\":1601:1615   */\n      add\n        /* \"#utility.yul\":1586:1615   */\n      swap1\n      pop\n        /* \"#utility.yul\":1452:1621   */\n      swap3\n      swap2\n      pop\n      pop\n      jump\t// out\n        /* \"#utility.yul\":1627:1799   */\n    tag_41:\n        /* \"#utility.yul\":1767:1791   */\n      0x446576696365206e6f7420726567697374657265642e00000000000000000000\n        /* \"#utility.yul\":1763:1764   */\n      0x00\n        /* \"#utility.yul\":1755:1761   */\n      dup3\n        /* \"#utility.yul\":1751:1765   */\n      add\n        /* \"#utility.yul\":1744:1792   */\n      mstore\n        /* \"#utility.yul\":1627:1799   */\n      pop\n      jump\t// out\n        /* \"#utility.yul\":1805:2171   */\n    tag_42:\n        /* \"#utility.yul\":1947:1950   */\n      0x00\n        /* \"#utility.yul\":1968:2035   */\n      tag_67\n        /* \"#utility.yul\":2032:2034   */\n      0x16\n        /* \"#utility.yul\":2027:2030   */\n      dup4\n        /* \"#utility.yul\":1968:2035   */\n      tag_40\n      jump\t// in\n    tag_67:\n        /* \"#utility.yul\":1961:2035   */\n      swap2\n      pop\n        /* \"#utility.yul\":2044:2137   */\n      tag_68\n        /* \"#utility.yul\":2133:2136   */\n      dup3\n        /* \"#utility.yul\":2044:2137   */\n      tag_41\n      jump\t// in\n    tag_68:\n        /* \"#utility.yul\":2162:2164   */\n      0x20\n        /* \"#utility.yul\":2157:2160   */\n      dup3\n        /* \"#utility.yul\":2153:2165   */\n      add\n        /* \"#utility.yul\":2146:2165   */\n      swap1\n      pop\n        /* \"#utility.yul\":1805:2171   */\n      swap2\n      swap1\n      pop\n      jump\t// out\n        /* \"#utility.yul\":2177:2596   */\n    tag_27:\n        /* \"#utility.yul\":2343:2347   */\n      0x00\n        /* \"#utility.yul\":2381:2383   */\n      0x20\n        /* \"#utility.yul\":2370:2379   */\n      dup3\n        /* \"#utility.yul\":2366:2384   */\n      add\n        /* \"#utility.yul\":2358:2384   */\n      swap1\n      pop\n        /* \"#utility.yul\":2430:2439   */\n      dup2\n        /* \"#utility.yul\":2424:2428   */\n      dup2\n        /* \"#utility.yul\":2420:2440   */\n      sub\n        /* \"#utility.yul\":2416:2417   */\n      0x00\n        /* \"#utility.yul\":2405:2414   */\n      dup4\n        /* \"#utility.yul\":2401:2418   */\n      add\n        /* \"#utility.yul\":2394:2441   */\n      mstore\n        /* \"#utility.yul\":2458:2589   */\n      tag_70\n        /* \"#utility.yul\":2584:2588   */\n      dup2\n        /* \"#utility.yul\":2458:2589   */\n      tag_42\n      jump\t// in\n    tag_70:\n        /* \"#utility.yul\":2450:2589   */\n      swap1\n      pop\n        /* \"#utility.yul\":2177:2596   */\n      swap2\n      swap1\n      pop\n      jump\t// out\n        /* \"#utility.yul\":2602:2778   */\n    tag_43:\n        /* \"#utility.yul\":2742:2770   */\n      0x44657669636520616c726561647920726567697374657265642e000000000000\n        /* \"#utility.yul\":2738:2739   */\n      0x00\n        /* \"#utility.yul\":2730:2736   */\n      dup3\n        /* \"#utility.yul\":2726:2740   */\n      add\n        /* \"#utility.yul\":2719:2771   */\n      mstore\n        /* \"#utility.yul\":2602:2778   */\n      pop\n      jump\t// out\n        /* \"#utility.yul\":2784:3150   */\n    tag_44:\n        /* \"#utility.yul\":2926:2929   */\n      0x00\n        /* \"#utility.yul\":2947:3014   */\n      tag_73\n        /* \"#utility.yul\":3011:3013   */\n      0x1a\n        /* \"#utility.yul\":3006:3009   */\n      dup4\n        /* \"#utility.yul\":2947:3014   */\n      tag_40\n      jump\t// in\n    tag_73:\n        /* \"#utility.yul\":2940:3014   */\n      swap2\n      pop\n        /* \"#utility.yul\":3023:3116   */\n      tag_74\n        /* \"#utility.yul\":3112:3115   */\n      dup3\n        /* \"#utility.yul\":3023:3116   */\n      tag_43\n      jump\t// in\n    tag_74:\n        /* \"#utility.yul\":3141:3143   */\n      0x20\n        /* \"#utility.yul\":3136:3139   */\n      dup3\n        /* \"#utility.yul\":3132:3144   */\n      add\n        /* \"#utility.yul\":3125:3144   */\n      swap1\n      pop\n        /* \"#utility.yul\":2784:3150   */\n      swap2\n      swap1\n      pop\n      jump\t// out\n        /* \"#utility.yul\":3156:3575   */\n    tag_31:\n        /* \"#utility.yul\":3322:3326   */\n      0x00\n        /* \"#utility.yul\":3360:3362   */\n      0x20\n        /* \"#utility.yul\":3349:3358   */\n      dup3\n        /* \"#utility.yul\":3345:3363   */\n      add\n        /* \"#utility.yul\":3337:3363   */\n      swap1\n      pop\n        /* \"#utility.yul\":3409:3418   */\n      dup2\n        /* \"#utility.yul\":3403:3407   */\n      dup2\n        /* \"#utility.yul\":3399:3419   */\n      sub\n        /* \"#utility.yul\":3395:3396   */\n      0x00\n        /* \"#utility.yul\":3384:3393   */\n      dup4\n        /* \"#utility.yul\":3380:3397   */\n      add\n        /* \"#utility.yul\":3373:3420   */\n      mstore\n        /* \"#utility.yul\":3437:3568   */\n      tag_76\n        /* \"#utility.yul\":3563:3567   */\n      dup2\n        /* \"#utility.yul\":3437:3568   */\n      tag_44\n      jump\t// in\n    tag_76:\n        /* \"#utility.yul\":3429:3568   */\n      swap1\n      pop\n        /* \"#utility.yul\":3156:3575   */\n      swap2\n      swap1\n      pop\n      jump\t// out\n\n    auxdata: 0xa26469706673582212202dd3f541783c975a13fc2e2147b6c8f85da9c3179854dc1b91dccbf259436e1d64736f6c63430008190033\n}\n",
				"bytecode": {
					"linkReferences": {},
					"object": "6080604052348015600e575f80fd5b506104398061001c5f395ff3fe608060405234801561000f575f80fd5b5060043610610049575f3560e01c8062921e691461004d578063156648801461007d57806327258b2214610099578063882ec35a146100c9575b5f80fd5b610067600480360381019061006291906102c5565b6100e5565b604051610074919061030a565b60405180910390f35b610097600480360381019061009291906102c5565b61010a565b005b6100b360048036038101906100ae91906102c5565b6101bd565b6040516100c0919061030a565b60405180910390f35b6100e360048036038101906100de91906102c5565b6101d9565b005b5f805f8381526020019081526020015f205f9054906101000a900460ff169050919050565b5f808281526020019081526020015f205f9054906101000a900460ff16610166576040517f08c379a000000000000000000000000000000000000000000000000000000000815260040161015d9061037d565b60405180910390fd5b5f805f8381526020019081526020015f205f6101000a81548160ff021916908315150217905550807f0bbce76f14864532511f1587f2809baad3cfe64edb5f1bab3c95f4949d9c0ef060405160405180910390a250565b5f602052805f5260405f205f915054906101000a900460ff1681565b5f808281526020019081526020015f205f9054906101000a900460ff1615610236576040517f08c379a000000000000000000000000000000000000000000000000000000000815260040161022d906103e5565b60405180910390fd5b60015f808381526020019081526020015f205f6101000a81548160ff021916908315150217905550807f543b01d8fc03bd0f400fb055a7c379dc964b3c478f922bb2e198fa9bccb8e71460405160405180910390a250565b5f80fd5b5f819050919050565b6102a481610292565b81146102ae575f80fd5b50565b5f813590506102bf8161029b565b92915050565b5f602082840312156102da576102d961028e565b5b5f6102e7848285016102b1565b91505092915050565b5f8115159050919050565b610304816102f0565b82525050565b5f60208201905061031d5f8301846102fb565b92915050565b5f82825260208201905092915050565b7f446576696365206e6f7420726567697374657265642e000000000000000000005f82015250565b5f610367601683610323565b915061037282610333565b602082019050919050565b5f6020820190508181035f8301526103948161035b565b9050919050565b7f44657669636520616c726561647920726567697374657265642e0000000000005f82015250565b5f6103cf601a83610323565b91506103da8261039b565b602082019050919050565b5f6020820190508181035f8301526103fc816103c3565b905091905056fea26469706673582212202dd3f541783c975a13fc2e2147b6c8f85da9c3179854dc1b91dccbf259436e1d64736f6c63430008190033",
					"opcodes": "PUSH1 0x80 PUSH1 0x40 MSTORE CALLVALUE DUP1 ISZERO PUSH1 0xE JUMPI PUSH0 DUP1 REVERT JUMPDEST POP PUSH2 0x439 DUP1 PUSH2 0x1C PUSH0 CODECOPY PUSH0 RETURN INVALID PUSH1 0x80 PUSH1 0x40 MSTORE CALLVALUE DUP1 ISZERO PUSH2 0xF JUMPI PUSH0 DUP1 REVERT JUMPDEST POP PUSH1 0x4 CALLDATASIZE LT PUSH2 0x49 JUMPI PUSH0 CALLDATALOAD PUSH1 0xE0 SHR DUP1 PUSH3 0x921E69 EQ PUSH2 0x4D JUMPI DUP1 PUSH4 0x15664880 EQ PUSH2 0x7D JUMPI DUP1 PUSH4 0x27258B22 EQ PUSH2 0x99 JUMPI DUP1 PUSH4 0x882EC35A EQ PUSH2 0xC9 JUMPI JUMPDEST PUSH0 DUP1 REVERT JUMPDEST PUSH2 0x67 PUSH1 0x4 DUP1 CALLDATASIZE SUB DUP2 ADD SWAP1 PUSH2 0x62 SWAP2 SWAP1 PUSH2 0x2C5 JUMP JUMPDEST PUSH2 0xE5 JUMP JUMPDEST PUSH1 0x40 MLOAD PUSH2 0x74 SWAP2 SWAP1 PUSH2 0x30A JUMP JUMPDEST PUSH1 0x40 MLOAD DUP1 SWAP2 SUB SWAP1 RETURN JUMPDEST PUSH2 0x97 PUSH1 0x4 DUP1 CALLDATASIZE SUB DUP2 ADD SWAP1 PUSH2 0x92 SWAP2 SWAP1 PUSH2 0x2C5 JUMP JUMPDEST PUSH2 0x10A JUMP JUMPDEST STOP JUMPDEST PUSH2 0xB3 PUSH1 0x4 DUP1 CALLDATASIZE SUB DUP2 ADD SWAP1 PUSH2 0xAE SWAP2 SWAP1 PUSH2 0x2C5 JUMP JUMPDEST PUSH2 0x1BD JUMP JUMPDEST PUSH1 0x40 MLOAD PUSH2 0xC0 SWAP2 SWAP1 PUSH2 0x30A JUMP JUMPDEST PUSH1 0x40 MLOAD DUP1 SWAP2 SUB SWAP1 RETURN JUMPDEST PUSH2 0xE3 PUSH1 0x4 DUP1 CALLDATASIZE SUB DUP2 ADD SWAP1 PUSH2 0xDE SWAP2 SWAP1 PUSH2 0x2C5 JUMP JUMPDEST PUSH2 0x1D9 JUMP JUMPDEST STOP JUMPDEST PUSH0 DUP1 PUSH0 DUP4 DUP2 MSTORE PUSH1 0x20 ADD SWAP1 DUP2 MSTORE PUSH1 0x20 ADD PUSH0 KECCAK256 PUSH0 SWAP1 SLOAD SWAP1 PUSH2 0x100 EXP SWAP1 DIV PUSH1 0xFF AND SWAP1 POP SWAP2 SWAP1 POP JUMP JUMPDEST PUSH0 DUP1 DUP3 DUP2 MSTORE PUSH1 0x20 ADD SWAP1 DUP2 MSTORE PUSH1 0x20 ADD PUSH0 KECCAK256 PUSH0 SWAP1 SLOAD SWAP1 PUSH2 0x100 EXP SWAP1 DIV PUSH1 0xFF AND PUSH2 0x166 JUMPI PUSH1 0x40 MLOAD PUSH32 0x8C379A000000000000000000000000000000000000000000000000000000000 DUP2 MSTORE PUSH1 0x4 ADD PUSH2 0x15D SWAP1 PUSH2 0x37D JUMP JUMPDEST PUSH1 0x40 MLOAD DUP1 SWAP2 SUB SWAP1 REVERT JUMPDEST PUSH0 DUP1 PUSH0 DUP4 DUP2 MSTORE PUSH1 0x20 ADD SWAP1 DUP2 MSTORE PUSH1 0x20 ADD PUSH0 KECCAK256 PUSH0 PUSH2 0x100 EXP DUP2 SLOAD DUP2 PUSH1 0xFF MUL NOT AND SWAP1 DUP4 ISZERO ISZERO MUL OR SWAP1 SSTORE POP DUP1 PUSH32 0xBBCE76F14864532511F1587F2809BAAD3CFE64EDB5F1BAB3C95F4949D9C0EF0 PUSH1 0x40 MLOAD PUSH1 0x40 MLOAD DUP1 SWAP2 SUB SWAP1 LOG2 POP JUMP JUMPDEST PUSH0 PUSH1 0x20 MSTORE DUP1 PUSH0 MSTORE PUSH1 0x40 PUSH0 KECCAK256 PUSH0 SWAP2 POP SLOAD SWAP1 PUSH2 0x100 EXP SWAP1 DIV PUSH1 0xFF AND DUP2 JUMP JUMPDEST PUSH0 DUP1 DUP3 DUP2 MSTORE PUSH1 0x20 ADD SWAP1 DUP2 MSTORE PUSH1 0x20 ADD PUSH0 KECCAK256 PUSH0 SWAP1 SLOAD SWAP1 PUSH2 0x100 EXP SWAP1 DIV PUSH1 0xFF AND ISZERO PUSH2 0x236 JUMPI PUSH1 0x40 MLOAD PUSH32 0x8C379A000000000000000000000000000000000000000000000000000000000 DUP2 MSTORE PUSH1 0x4 ADD PUSH2 0x22D SWAP1 PUSH2 0x3E5 JUMP JUMPDEST PUSH1 0x40 MLOAD DUP1 SWAP2 SUB SWAP1 REVERT JUMPDEST PUSH1 0x1 PUSH0 DUP1 DUP4 DUP2 MSTORE PUSH1 0x20 ADD SWAP1 DUP2 MSTORE PUSH1 0x20 ADD PUSH0 KECCAK256 PUSH0 PUSH2 0x100 EXP DUP2 SLOAD DUP2 PUSH1 0xFF MUL NOT AND SWAP1 DUP4 ISZERO ISZERO MUL OR SWAP1 SSTORE POP DUP1 PUSH32 0x543B01D8FC03BD0F400FB055A7C379DC964B3C478F922BB2E198FA9BCCB8E714 PUSH1 0x40 MLOAD PUSH1 0x40 MLOAD DUP1 SWAP2 SUB SWAP1 LOG2 POP JUMP JUMPDEST PUSH0 DUP1 REVERT JUMPDEST PUSH0 DUP2 SWAP1 POP SWAP2 SWAP1 POP JUMP JUMPDEST PUSH2 0x2A4 DUP2 PUSH2 0x292 JUMP JUMPDEST DUP2 EQ PUSH2 0x2AE JUMPI PUSH0 DUP1 REVERT JUMPDEST POP JUMP JUMPDEST PUSH0 DUP2 CALLDATALOAD SWAP1 POP PUSH2 0x2BF DUP2 PUSH2 0x29B JUMP JUMPDEST SWAP3 SWAP2 POP POP JUMP JUMPDEST PUSH0 PUSH1 0x20 DUP3 DUP5 SUB SLT ISZERO PUSH2 0x2DA JUMPI PUSH2 0x2D9 PUSH2 0x28E JUMP JUMPDEST JUMPDEST PUSH0 PUSH2 0x2E7 DUP5 DUP3 DUP6 ADD PUSH2 0x2B1 JUMP JUMPDEST SWAP2 POP POP SWAP3 SWAP2 POP POP JUMP JUMPDEST PUSH0 DUP2 ISZERO ISZERO SWAP1 POP SWAP2 SWAP1 POP JUMP JUMPDEST PUSH2 0x304 DUP2 PUSH2 0x2F0 JUMP JUMPDEST DUP3 MSTORE POP POP JUMP JUMPDEST PUSH0 PUSH1 0x20 DUP3 ADD SWAP1 POP PUSH2 0x31D PUSH0 DUP4 ADD DUP5 PUSH2 0x2FB JUMP JUMPDEST SWAP3 SWAP2 POP POP JUMP JUMPDEST PUSH0 DUP3 DUP3 MSTORE PUSH1 0x20 DUP3 ADD SWAP1 POP SWAP3 SWAP2 POP POP JUMP JUMPDEST PUSH32 0x446576696365206E6F7420726567697374657265642E00000000000000000000 PUSH0 DUP3 ADD MSTORE POP JUMP JUMPDEST PUSH0 PUSH2 0x367 PUSH1 0x16 DUP4 PUSH2 0x323 JUMP JUMPDEST SWAP2 POP PUSH2 0x372 DUP3 PUSH2 0x333 JUMP JUMPDEST PUSH1 0x20 DUP3 ADD SWAP1 POP SWAP2 SWAP1 POP JUMP JUMPDEST PUSH0 PUSH1 0x20 DUP3 ADD SWAP1 POP DUP2 DUP2 SUB PUSH0 DUP4 ADD MSTORE PUSH2 0x394 DUP2 PUSH2 0x35B JUMP JUMPDEST SWAP1 POP SWAP2 SWAP1 POP JUMP JUMPDEST PUSH32 0x44657669636520616C726561647920726567697374657265642E000000000000 PUSH0 DUP3 ADD MSTORE POP JUMP JUMPDEST PUSH0 PUSH2 0x3CF PUSH1 0x1A DUP4 PUSH2 0x323 JUMP JUMPDEST SWAP2 POP PUSH2 0x3DA DUP3 PUSH2 0x39B JUMP JUMPDEST PUSH1 0x20 DUP3 ADD SWAP1 POP SWAP2 SWAP1 POP JUMP JUMPDEST PUSH0 PUSH1 0x20 DUP3 ADD SWAP1 POP DUP2 DUP2 SUB PUSH0 DUP4 ADD MSTORE PUSH2 0x3FC DUP2 PUSH2 0x3C3 JUMP JUMPDEST SWAP1 POP SWAP2 SWAP1 POP JUMP INVALID LOG2 PUSH5 0x6970667358 0x22 SLT KECCAK256 0x2D 0xD3 CREATE2 COINBASE PUSH25 0x3C975A13FC2E2147B6C8F85DA9C3179854DC1B91DCCBF25943 PUSH15 0x1D64736F6C63430008190033000000 "
				},
				"gasEstimates": {
					"creation": {
						"codeDepositCost": "216200",
						"executionCost": "255",
						"totalCost": "216455"
					},
					"external": {
						"checkDevice(bytes32)": "2788",
						"isRegistered(bytes32)": "2806",
						"registerDevice(bytes32)": "28173",
						"unregisterDevice(bytes32)": "28125"
					}
				},
				"methodIdentifiers": {
					"checkDevice(bytes32)": "00921e69",
					"isRegistered(bytes32)": "27258b22",
					"registerDevice(bytes32)": "882ec35a",
					"unregisterDevice(bytes32)": "15664880"
				}
			},
			"storageLayout": {
				"storage": [
					{
						"astId": 85,
						"contract": "contracts/IoTDeviceAuth.sol:IoTDeviceAuth",
						"label": "isRegistered",
						"offset": 0,
						"slot": "0",
						"type": "t_mapping(t_bytes32,t_bool)"
					}
				],
				"types": {
					"t_bool": {
						"encoding": "inplace",
						"label": "bool",
						"numberOfBytes": "1"
					},
					"t_bytes32": {
						"encoding": "inplace",
						"label": "bytes32",
						"numberOfBytes": "32"
					},
					"t_mapping(t_bytes32,t_bool)": {
						"encoding": "mapping",
						"key": "t_bytes32",
						"label": "mapping(bytes32 => bool)",
						"numberOfBytes": "32",
						"value": "t_bool"
					}
				}
			},
			"userdoc": {
				"kind": "user",
				"methods": {},
				"version": 1
			}
		}
	}
}