{
	"contracts/IoTDataStorage.sol": {
		"IoTDataStorage": {
			"abi": [
				{
					"inputs": [
						{
							"internalType": "address",
							"name": "_authContractAddress",
							"type": "address"
						}
					],
					"stateMutability": "nonpayable",
					"type": "constructor"
				},
				{
					"anonymous": false,
					"inputs": [
						{
							"indexed": true,
							"internalType": "bytes32",
							"name": "deviceId",
							"type": "bytes32"
						},
						{
							"indexed": false,
							"internalType": "string",
							"name": "data",
							"type": "string"
						}
					],
					"name": "DataStored",
					"type": "event"
				},
				{
					"inputs": [
						{
							"internalType": "bytes32",
							"name": "deviceId",
							"type": "bytes32"
						}
					],
					"name": "getData",
					"outputs": [
						{
							"internalType": "string",
							"name": "",
							"type": "string"
						}
					],
					"stateMutability": "view",
					"type": "function"
				},
				{
					"inputs": [
						{
							"internalType": "bytes32",
							"name": "deviceId",
							"type": "bytes32"
						},
						{
							"internalType": "string",
							"name": "data",
							"type": "string"
						}
					],
					"name": "storeData",
					"outputs": [],
					"stateMutability": "nonpayable",
					"type": "function"
				}
			],
			"devdoc": {
				"details": "Manages secure storage and retrieval of IoT data.",
				"kind": "dev",
				"methods": {
					"getData(bytes32)": {
						"details": "Retrieves data for a specific IoT device.",
						"params": {
							"deviceId": "The unique identifier of the device."
						},
						"returns": {
							"_0": "string The stored data."
						}
					},
					"storeData(bytes32,string)": {
						"details": "Stores data from an IoT device.",
						"params": {
							"data": "The encrypted data string.",
							"deviceId": "The unique identifier of the device."
						}
					}
				},
				"title": "IoTDataStorage",
				"version": 1
			},
			"evm": {
				"assembly": "    /* \"contracts/IoTDataStorage.sol\":180:1379  contract IoTDataStorage {... */\n  mstore(0x40, 0x80)\n    /* \"contracts/IoTDataStorage.sol\":313:422  constructor(address _authContractAddress) {... */\n  callvalue\n  dup1\n  iszero\n  tag_1\n  jumpi\n  0x00\n  dup1\n  revert\ntag_1:\n  pop\n  mload(0x40)\n  sub(codesize, bytecodeSize)\n  dup1\n  bytecodeSize\n  dup4\n  codecopy\n  dup2\n  dup2\n  add\n  0x40\n  mstore\n  dup2\n  add\n  swap1\n  tag_2\n  swap2\n  swap1\n  tag_3\n  jump\t// in\ntag_2:\n    /* \"contracts/IoTDataStorage.sol\":394:414  _authContractAddress */\n  dup1\n    /* \"contracts/IoTDataStorage.sol\":365:377  authContract */\n  0x00\n  dup1\n    /* \"contracts/IoTDataStorage.sol\":365:415  authContract = IoTDeviceAuth(_authContractAddress) */\n  0x0100\n  exp\n  dup2\n  sload\n  dup2\n  0xffffffffffffffffffffffffffffffffffffffff\n  mul\n  not\n  and\n  swap1\n  dup4\n  0xffffffffffffffffffffffffffffffffffffffff\n  and\n  mul\n  or\n  swap1\n  sstore\n  pop\n    /* \"contracts/IoTDataStorage.sol\":313:422  constructor(address _authContractAddress) {... */\n  pop\n    /* \"contracts/IoTDataStorage.sol\":180:1379  contract IoTDataStorage {... */\n  jump(tag_6)\n    /* \"#utility.yul\":88:205   */\ntag_8:\n    /* \"#utility.yul\":197:198   */\n  0x00\n    /* \"#utility.yul\":194:195   */\n  dup1\n    /* \"#utility.yul\":187:199   */\n  revert\n    /* \"#utility.yul\":334:460   */\ntag_10:\n    /* \"#utility.yul\":371:378   */\n  0x00\n    /* \"#utility.yul\":411:453   */\n  0xffffffffffffffffffffffffffffffffffffffff\n    /* \"#utility.yul\":404:409   */\n  dup3\n    /* \"#utility.yul\":400:454   */\n  and\n    /* \"#utility.yul\":389:454   */\n  swap1\n  pop\n    /* \"#utility.yul\":334:460   */\n  swap2\n  swap1\n  pop\n  jump\t// out\n    /* \"#utility.yul\":466:562   */\ntag_11:\n    /* \"#utility.yul\":503:510   */\n  0x00\n    /* \"#utility.yul\":532:556   */\n  tag_20\n    /* \"#utility.yul\":550:555   */\n  dup3\n    /* \"#utility.yul\":532:556   */\n  tag_10\n  jump\t// in\ntag_20:\n    /* \"#utility.yul\":521:556   */\n  swap1\n  pop\n    /* \"#utility.yul\":466:562   */\n  swap2\n  swap1\n  pop\n  jump\t// out\n    /* \"#utility.yul\":568:690   */\ntag_12:\n    /* \"#utility.yul\":641:665   */\n  tag_22\n    /* \"#utility.yul\":659:664   */\n  dup2\n    /* \"#utility.yul\":641:665   */\n  tag_11\n  jump\t// in\ntag_22:\n    /* \"#utility.yul\":634:639   */\n  dup2\n    /* \"#utility.yul\":631:666   */\n  eq\n    /* \"#utility.yul\":621:684   */\n  tag_23\n  jumpi\n    /* \"#utility.yul\":680:681   */\n  0x00\n    /* \"#utility.yul\":677:678   */\n  dup1\n    /* \"#utility.yul\":670:682   */\n  revert\n    /* \"#utility.yul\":621:684   */\ntag_23:\n    /* \"#utility.yul\":568:690   */\n  pop\n  jump\t// out\n    /* \"#utility.yul\":696:839   */\ntag_13:\n    /* \"#utility.yul\":753:758   */\n  0x00\n    /* \"#utility.yul\":784:790   */\n  dup2\n    /* \"#utility.yul\":778:791   */\n  mload\n    /* \"#utility.yul\":769:791   */\n  swap1\n  pop\n    /* \"#utility.yul\":800:833   */\n  tag_25\n    /* \"#utility.yul\":827:832   */\n  dup2\n    /* \"#utility.yul\":800:833   */\n  tag_12\n  jump\t// in\ntag_25:\n    /* \"#utility.yul\":696:839   */\n  swap3\n  swap2\n  pop\n  pop\n  jump\t// out\n    /* \"#utility.yul\":845:1196   */\ntag_3:\n    /* \"#utility.yul\":915:921   */\n  0x00\n    /* \"#utility.yul\":964:966   */\n  0x20\n    /* \"#utility.yul\":952:961   */\n  dup3\n    /* \"#utility.yul\":943:950   */\n  dup5\n    /* \"#utility.yul\":939:962   */\n  sub\n    /* \"#utility.yul\":935:967   */\n  slt\n    /* \"#utility.yul\":932:1051   */\n  iszero\n  tag_27\n  jumpi\n    /* \"#utility.yul\":970:1049   */\n  tag_28\n  tag_8\n  jump\t// in\ntag_28:\n    /* \"#utility.yul\":932:1051   */\ntag_27:\n    /* \"#utility.yul\":1090:1091   */\n  0x00\n    /* \"#utility.yul\":1115:1179   */\n  tag_29\n    /* \"#utility.yul\":1171:1178   */\n  dup5\n    /* \"#utility.yul\":1162:1168   */\n  dup3\n    /* \"#utility.yul\":1151:1160   */\n  dup6\n    /* \"#utility.yul\":1147:1169   */\n  add\n    /* \"#utility.yul\":1115:1179   */\n  tag_13\n  jump\t// in\ntag_29:\n    /* \"#utility.yul\":1105:1179   */\n  swap2\n  pop\n    /* \"#utility.yul\":1061:1189   */\n  pop\n    /* \"#utility.yul\":845:1196   */\n  swap3\n  swap2\n  pop\n  pop\n  jump\t// out\n    /* \"contracts/IoTDataStorage.sol\":180:1379  contract IoTDataStorage {... */\ntag_6:\n  dataSize(sub_0)\n  dup1\n  dataOffset(sub_0)\n  0x00\n  codecopy\n  0x00\n  return\nstop\n\nsub_0: assembly {\n        /* \"contracts/IoTDataStorage.sol\":180:1379  contract IoTDataStorage {... */\n      mstore(0x40, 0x80)\n      callvalue\n      dup1\n      iszero\n      tag_1\n      jumpi\n      0x00\n      dup1\n      revert\n    tag_1:\n      pop\n      jumpi(tag_2, lt(calldatasize, 0x04))\n      shr(0xe0, calldataload(0x00))\n      dup1\n      0x53794a93\n      eq\n      tag_3\n      jumpi\n      dup1\n      0x54f6127f\n      eq\n      tag_4\n      jumpi\n    tag_2:\n      0x00\n      dup1\n      revert\n        /* \"contracts/IoTDataStorage.sol\":776:1008  function storeData(bytes32 deviceId, string calldata data) external {... */\n    tag_3:\n      tag_5\n      0x04\n      dup1\n      calldatasize\n      sub\n      dup2\n      add\n      swap1\n      tag_6\n      swap2\n      swap1\n      tag_7\n      jump\t// in\n    tag_6:\n      tag_8\n      jump\t// in\n    tag_5:\n      stop\n        /* \"contracts/IoTDataStorage.sol\":1183:1377  function getData(bytes32 deviceId) public view returns (string memory) {... */\n    tag_4:\n      tag_9\n      0x04\n      dup1\n      calldatasize\n      sub\n      dup2\n      add\n      swap1\n      tag_10\n      swap2\n      swap1\n      tag_11\n      jump\t// in\n    tag_10:\n      tag_12\n      jump\t// in\n    tag_9:\n      mload(0x40)\n      tag_13\n      swap2\n      swap1\n      tag_14\n      jump\t// in\n    tag_13:\n      mload(0x40)\n      dup1\n      swap2\n      sub\n      swap1\n      return\n        /* \"contracts/IoTDataStorage.sol\":776:1008  function storeData(bytes32 deviceId, string calldata data) external {... */\n    tag_8:\n        /* \"contracts/IoTDataStorage.sol\":862:874  authContract */\n      0x00\n      dup1\n      sload\n      swap1\n      0x0100\n      exp\n      swap1\n      div\n      0xffffffffffffffffffffffffffffffffffffffff\n      and\n        /* \"contracts/IoTDataStorage.sol\":862:886  authContract.checkDevice */\n      0xffffffffffffffffffffffffffffffffffffffff\n      and\n      0x921e69\n        /* \"contracts/IoTDataStorage.sol\":887:895  deviceId */\n      dup5\n        /* \"contracts/IoTDataStorage.sol\":862:896  authContract.checkDevice(deviceId) */\n      mload(0x40)\n      dup3\n      0xffffffff\n      and\n      0xe0\n      shl\n      dup2\n      mstore\n      0x04\n      add\n      tag_16\n      swap2\n      swap1\n      tag_17\n      jump\t// in\n    tag_16:\n      0x20\n      mload(0x40)\n      dup1\n      dup4\n      sub\n      dup2\n      dup7\n      gas\n      staticcall\n      iszero\n      dup1\n      iszero\n      tag_19\n      jumpi\n      returndatasize\n      0x00\n      dup1\n      returndatacopy\n      revert(0x00, returndatasize)\n    tag_19:\n      pop\n      pop\n      pop\n      pop\n      mload(0x40)\n      returndatasize\n      not(0x1f)\n      0x1f\n      dup3\n      add\n      and\n      dup3\n      add\n      dup1\n      0x40\n      mstore\n      pop\n      dup2\n      add\n      swap1\n      tag_20\n      swap2\n      swap1\n      tag_21\n      jump\t// in\n    tag_20:\n        /* \"contracts/IoTDataStorage.sol\":854:923  require(authContract.checkDevice(deviceId), \"Device not registered.\") */\n      tag_22\n      jumpi\n      mload(0x40)\n      0x08c379a000000000000000000000000000000000000000000000000000000000\n      dup2\n      mstore\n      0x04\n      add\n      tag_23\n      swap1\n      tag_24\n      jump\t// in\n    tag_23:\n      mload(0x40)\n      dup1\n      swap2\n      sub\n      swap1\n      revert\n    tag_22:\n        /* \"contracts/IoTDataStorage.sol\":956:960  data */\n      dup2\n      dup2\n        /* \"contracts/IoTDataStorage.sol\":933:943  deviceData */\n      0x01\n        /* \"contracts/IoTDataStorage.sol\":933:953  deviceData[deviceId] */\n      0x00\n        /* \"contracts/IoTDataStorage.sol\":944:952  deviceId */\n      dup7\n        /* \"contracts/IoTDataStorage.sol\":933:953  deviceData[deviceId] */\n      dup2\n      mstore\n      0x20\n      add\n      swap1\n      dup2\n      mstore\n      0x20\n      add\n      0x00\n      keccak256\n        /* \"contracts/IoTDataStorage.sol\":933:960  deviceData[deviceId] = data */\n      swap2\n      dup3\n      tag_25\n      swap3\n      swap2\n      swap1\n      tag_26\n      jump\t// in\n    tag_25:\n      pop\n        /* \"contracts/IoTDataStorage.sol\":986:994  deviceId */\n      dup3\n        /* \"contracts/IoTDataStorage.sol\":975:1001  DataStored(deviceId, data) */\n      0xb47f325ec5ac1f68149ca2686e2905c3e99b66bbeb96c5926eb5f91b7ba6388d\n        /* \"contracts/IoTDataStorage.sol\":996:1000  data */\n      dup4\n      dup4\n        /* \"contracts/IoTDataStorage.sol\":975:1001  DataStored(deviceId, data) */\n      mload(0x40)\n      tag_27\n      swap3\n      swap2\n      swap1\n      tag_28\n      jump\t// in\n    tag_27:\n      mload(0x40)\n      dup1\n      swap2\n      sub\n      swap1\n      log2\n        /* \"contracts/IoTDataStorage.sol\":776:1008  function storeData(bytes32 deviceId, string calldata data) external {... */\n      pop\n      pop\n      pop\n      jump\t// out\n        /* \"contracts/IoTDataStorage.sol\":1183:1377  function getData(bytes32 deviceId) public view returns (string memory) {... */\n    tag_12:\n        /* \"contracts/IoTDataStorage.sol\":1239:1252  string memory */\n      0x60\n        /* \"contracts/IoTDataStorage.sol\":1272:1284  authContract */\n      0x00\n      dup1\n      sload\n      swap1\n      0x0100\n      exp\n      swap1\n      div\n      0xffffffffffffffffffffffffffffffffffffffff\n      and\n        /* \"contracts/IoTDataStorage.sol\":1272:1296  authContract.checkDevice */\n      0xffffffffffffffffffffffffffffffffffffffff\n      and\n      0x921e69\n        /* \"contracts/IoTDataStorage.sol\":1297:1305  deviceId */\n      dup4\n        /* \"contracts/IoTDataStorage.sol\":1272:1306  authContract.checkDevice(deviceId) */\n      mload(0x40)\n      dup3\n      0xffffffff\n      and\n      0xe0\n      shl\n      dup2\n      mstore\n      0x04\n      add\n      tag_30\n      swap2\n      swap1\n      tag_17\n      jump\t// in\n    tag_30:\n      0x20\n      mload(0x40)\n      dup1\n      dup4\n      sub\n      dup2\n      dup7\n      gas\n      staticcall\n      iszero\n      dup1\n      iszero\n      tag_32\n      jumpi\n      returndatasize\n      0x00\n      dup1\n      returndatacopy\n      revert(0x00, returndatasize)\n    tag_32:\n      pop\n      pop\n      pop\n      pop\n      mload(0x40)\n      returndatasize\n      not(0x1f)\n      0x1f\n      dup3\n      add\n      and\n      dup3\n      add\n      dup1\n      0x40\n      mstore\n      pop\n      dup2\n      add\n      swap1\n      tag_33\n      swap2\n      swap1\n      tag_21\n      jump\t// in\n    tag_33:\n        /* \"contracts/IoTDataStorage.sol\":1264:1333  require(authContract.checkDevice(deviceId), \"Device not registered.\") */\n      tag_34\n      jumpi\n      mload(0x40)\n      0x08c379a000000000000000000000000000000000000000000000000000000000\n      dup2\n      mstore\n      0x04\n      add\n      tag_35\n      swap1\n      tag_24\n      jump\t// in\n    tag_35:\n      mload(0x40)\n      dup1\n      swap2\n      sub\n      swap1\n      revert\n    tag_34:\n        /* \"contracts/IoTDataStorage.sol\":1350:1360  deviceData */\n      0x01\n        /* \"contracts/IoTDataStorage.sol\":1350:1370  deviceData[deviceId] */\n      0x00\n        /* \"contracts/IoTDataStorage.sol\":1361:1369  deviceId */\n      dup4\n        /* \"contracts/IoTDataStorage.sol\":1350:1370  deviceData[deviceId] */\n      dup2\n      mstore\n      0x20\n      add\n      swap1\n      dup2\n      mstore\n      0x20\n      add\n      0x00\n      keccak256\n        /* \"contracts/IoTDataStorage.sol\":1343:1370  return deviceData[deviceId] */\n      dup1\n      sload\n      tag_36\n      swap1\n      tag_37\n      jump\t// in\n    tag_36:\n      dup1\n      0x1f\n      add\n      0x20\n      dup1\n      swap2\n      div\n      mul\n      0x20\n      add\n      mload(0x40)\n      swap1\n      dup2\n      add\n      0x40\n      mstore\n      dup1\n      swap3\n      swap2\n      swap1\n      dup2\n      dup2\n      mstore\n      0x20\n      add\n      dup3\n      dup1\n      sload\n      tag_38\n      swap1\n      tag_37\n      jump\t// in\n    tag_38:\n      dup1\n      iszero\n      tag_39\n      jumpi\n      dup1\n      0x1f\n      lt\n      tag_40\n      jumpi\n      0x0100\n      dup1\n      dup4\n      sload\n      div\n      mul\n      dup4\n      mstore\n      swap2\n      0x20\n      add\n      swap2\n      jump(tag_39)\n    tag_40:\n      dup3\n      add\n      swap2\n      swap1\n      0x00\n      mstore\n      keccak256(0x00, 0x20)\n      swap1\n    tag_41:\n      dup2\n      sload\n      dup2\n      mstore\n      swap1\n      0x01\n      add\n      swap1\n      0x20\n      add\n      dup1\n      dup4\n      gt\n      tag_41\n      jumpi\n      dup3\n      swap1\n      sub\n      0x1f\n      and\n      dup3\n      add\n      swap2\n    tag_39:\n      pop\n      pop\n      pop\n      pop\n      pop\n      swap1\n      pop\n        /* \"contracts/IoTDataStorage.sol\":1183:1377  function getData(bytes32 deviceId) public view returns (string memory) {... */\n      swap2\n      swap1\n      pop\n      jump\t// out\n        /* \"#utility.yul\":88:205   */\n    tag_43:\n        /* \"#utility.yul\":197:198   */\n      0x00\n        /* \"#utility.yul\":194:195   */\n      dup1\n        /* \"#utility.yul\":187:199   */\n      revert\n        /* \"#utility.yul\":211:328   */\n    tag_44:\n        /* \"#utility.yul\":320:321   */\n      0x00\n        /* \"#utility.yul\":317:318   */\n      dup1\n        /* \"#utility.yul\":310:322   */\n      revert\n        /* \"#utility.yul\":334:411   */\n    tag_45:\n        /* \"#utility.yul\":371:378   */\n      0x00\n        /* \"#utility.yul\":400:405   */\n      dup2\n        /* \"#utility.yul\":389:405   */\n      swap1\n      pop\n        /* \"#utility.yul\":334:411   */\n      swap2\n      swap1\n      pop\n      jump\t// out\n        /* \"#utility.yul\":417:539   */\n    tag_46:\n        /* \"#utility.yul\":490:514   */\n      tag_90\n        /* \"#utility.yul\":508:513   */\n      dup2\n        /* \"#utility.yul\":490:514   */\n      tag_45\n      jump\t// in\n    tag_90:\n        /* \"#utility.yul\":483:488   */\n      dup2\n        /* \"#utility.yul\":480:515   */\n      eq\n        /* \"#utility.yul\":470:533   */\n      tag_91\n      jumpi\n        /* \"#utility.yul\":529:530   */\n      0x00\n        /* \"#utility.yul\":526:527   */\n      dup1\n        /* \"#utility.yul\":519:531   */\n      revert\n        /* \"#utility.yul\":470:533   */\n    tag_91:\n        /* \"#utility.yul\":417:539   */\n      pop\n      jump\t// out\n        /* \"#utility.yul\":545:684   */\n    tag_47:\n        /* \"#utility.yul\":591:596   */\n      0x00\n        /* \"#utility.yul\":629:635   */\n      dup2\n        /* \"#utility.yul\":616:636   */\n      calldataload\n        /* \"#utility.yul\":607:636   */\n      swap1\n      pop\n        /* \"#utility.yul\":645:678   */\n      tag_93\n        /* \"#utility.yul\":672:677   */\n      dup2\n        /* \"#utility.yul\":645:678   */\n      tag_46\n      jump\t// in\n    tag_93:\n        /* \"#utility.yul\":545:684   */\n      swap3\n      swap2\n      pop\n      pop\n      jump\t// out\n        /* \"#utility.yul\":690:807   */\n    tag_48:\n        /* \"#utility.yul\":799:800   */\n      0x00\n        /* \"#utility.yul\":796:797   */\n      dup1\n        /* \"#utility.yul\":789:801   */\n      revert\n        /* \"#utility.yul\":813:930   */\n    tag_49:\n        /* \"#utility.yul\":922:923   */\n      0x00\n        /* \"#utility.yul\":919:920   */\n      dup1\n        /* \"#utility.yul\":912:924   */\n      revert\n        /* \"#utility.yul\":936:1053   */\n    tag_50:\n        /* \"#utility.yul\":1045:1046   */\n      0x00\n        /* \"#utility.yul\":1042:1043   */\n      dup1\n        /* \"#utility.yul\":1035:1047   */\n      revert\n        /* \"#utility.yul\":1073:1626   */\n    tag_51:\n        /* \"#utility.yul\":1131:1139   */\n      0x00\n        /* \"#utility.yul\":1141:1147   */\n      dup1\n        /* \"#utility.yul\":1191:1194   */\n      dup4\n        /* \"#utility.yul\":1184:1188   */\n      0x1f\n        /* \"#utility.yul\":1176:1182   */\n      dup5\n        /* \"#utility.yul\":1172:1189   */\n      add\n        /* \"#utility.yul\":1168:1195   */\n      slt\n        /* \"#utility.yul\":1158:1280   */\n      tag_98\n      jumpi\n        /* \"#utility.yul\":1199:1278   */\n      tag_99\n      tag_48\n      jump\t// in\n    tag_99:\n        /* \"#utility.yul\":1158:1280   */\n    tag_98:\n        /* \"#utility.yul\":1312:1318   */\n      dup3\n        /* \"#utility.yul\":1299:1319   */\n      calldataload\n        /* \"#utility.yul\":1289:1319   */\n      swap1\n      pop\n        /* \"#utility.yul\":1342:1360   */\n      0xffffffffffffffff\n        /* \"#utility.yul\":1334:1340   */\n      dup2\n        /* \"#utility.yul\":1331:1361   */\n      gt\n        /* \"#utility.yul\":1328:1445   */\n      iszero\n      tag_100\n      jumpi\n        /* \"#utility.yul\":1364:1443   */\n      tag_101\n      tag_49\n      jump\t// in\n    tag_101:\n        /* \"#utility.yul\":1328:1445   */\n    tag_100:\n        /* \"#utility.yul\":1478:1482   */\n      0x20\n        /* \"#utility.yul\":1470:1476   */\n      dup4\n        /* \"#utility.yul\":1466:1483   */\n      add\n        /* \"#utility.yul\":1454:1483   */\n      swap2\n      pop\n        /* \"#utility.yul\":1532:1535   */\n      dup4\n        /* \"#utility.yul\":1524:1528   */\n      0x01\n        /* \"#utility.yul\":1516:1522   */\n      dup3\n        /* \"#utility.yul\":1512:1529   */\n      mul\n        /* \"#utility.yul\":1502:1510   */\n      dup4\n        /* \"#utility.yul\":1498:1530   */\n      add\n        /* \"#utility.yul\":1495:1536   */\n      gt\n        /* \"#utility.yul\":1492:1620   */\n      iszero\n      tag_102\n      jumpi\n        /* \"#utility.yul\":1539:1618   */\n      tag_103\n      tag_50\n      jump\t// in\n    tag_103:\n        /* \"#utility.yul\":1492:1620   */\n    tag_102:\n        /* \"#utility.yul\":1073:1626   */\n      swap3\n      pop\n      swap3\n      swap1\n      pop\n      jump\t// out\n        /* \"#utility.yul\":1632:2306   */\n    tag_7:\n        /* \"#utility.yul\":1712:1718   */\n      0x00\n        /* \"#utility.yul\":1720:1726   */\n      dup1\n        /* \"#utility.yul\":1728:1734   */\n      0x00\n        /* \"#utility.yul\":1777:1779   */\n      0x40\n        /* \"#utility.yul\":1765:1774   */\n      dup5\n        /* \"#utility.yul\":1756:1763   */\n      dup7\n        /* \"#utility.yul\":1752:1775   */\n      sub\n        /* \"#utility.yul\":1748:1780   */\n      slt\n        /* \"#utility.yul\":1745:1864   */\n      iszero\n      tag_105\n      jumpi\n        /* \"#utility.yul\":1783:1862   */\n      tag_106\n      tag_43\n      jump\t// in\n    tag_106:\n        /* \"#utility.yul\":1745:1864   */\n    tag_105:\n        /* \"#utility.yul\":1903:1904   */\n      0x00\n        /* \"#utility.yul\":1928:1981   */\n      tag_107\n        /* \"#utility.yul\":1973:1980   */\n      dup7\n        /* \"#utility.yul\":1964:1970   */\n      dup3\n        /* \"#utility.yul\":1953:1962   */\n      dup8\n        /* \"#utility.yul\":1949:1971   */\n      add\n        /* \"#utility.yul\":1928:1981   */\n      tag_47\n      jump\t// in\n    tag_107:\n        /* \"#utility.yul\":1918:1981   */\n      swap4\n      pop\n        /* \"#utility.yul\":1874:1991   */\n      pop\n        /* \"#utility.yul\":2058:2060   */\n      0x20\n        /* \"#utility.yul\":2047:2056   */\n      dup5\n        /* \"#utility.yul\":2043:2061   */\n      add\n        /* \"#utility.yul\":2030:2062   */\n      calldataload\n        /* \"#utility.yul\":2089:2107   */\n      0xffffffffffffffff\n        /* \"#utility.yul\":2081:2087   */\n      dup2\n        /* \"#utility.yul\":2078:2108   */\n      gt\n        /* \"#utility.yul\":2075:2192   */\n      iszero\n      tag_108\n      jumpi\n        /* \"#utility.yul\":2111:2190   */\n      tag_109\n      tag_44\n      jump\t// in\n    tag_109:\n        /* \"#utility.yul\":2075:2192   */\n    tag_108:\n        /* \"#utility.yul\":2224:2289   */\n      tag_110\n        /* \"#utility.yul\":2281:2288   */\n      dup7\n        /* \"#utility.yul\":2272:2278   */\n      dup3\n        /* \"#utility.yul\":2261:2270   */\n      dup8\n        /* \"#utility.yul\":2257:2279   */\n      add\n        /* \"#utility.yul\":2224:2289   */\n      tag_51\n      jump\t// in\n    tag_110:\n        /* \"#utility.yul\":2206:2289   */\n      swap3\n      pop\n      swap3\n      pop\n        /* \"#utility.yul\":2001:2299   */\n      pop\n        /* \"#utility.yul\":1632:2306   */\n      swap3\n      pop\n      swap3\n      pop\n      swap3\n      jump\t// out\n        /* \"#utility.yul\":2312:2641   */\n    tag_11:\n        /* \"#utility.yul\":2371:2377   */\n      0x00\n        /* \"#utility.yul\":2420:2422   */\n      0x20\n        /* \"#utility.yul\":2408:2417   */\n      dup3\n        /* \"#utility.yul\":2399:2406   */\n      dup5\n        /* \"#utility.yul\":2395:2418   */\n      sub\n        /* \"#utility.yul\":2391:2423   */\n      slt\n        /* \"#utility.yul\":2388:2507   */\n      iszero\n      tag_112\n      jumpi\n        /* \"#utility.yul\":2426:2505   */\n      tag_113\n      tag_43\n      jump\t// in\n    tag_113:\n        /* \"#utility.yul\":2388:2507   */\n    tag_112:\n        /* \"#utility.yul\":2546:2547   */\n      0x00\n        /* \"#utility.yul\":2571:2624   */\n      tag_114\n        /* \"#utility.yul\":2616:2623   */\n      dup5\n        /* \"#utility.yul\":2607:2613   */\n      dup3\n        /* \"#utility.yul\":2596:2605   */\n      dup6\n        /* \"#utility.yul\":2592:2614   */\n      add\n        /* \"#utility.yul\":2571:2624   */\n      tag_47\n      jump\t// in\n    tag_114:\n        /* \"#utility.yul\":2561:2624   */\n      swap2\n      pop\n        /* \"#utility.yul\":2517:2634   */\n      pop\n        /* \"#utility.yul\":2312:2641   */\n      swap3\n      swap2\n      pop\n      pop\n      jump\t// out\n        /* \"#utility.yul\":2647:2746   */\n    tag_52:\n        /* \"#utility.yul\":2699:2705   */\n      0x00\n        /* \"#utility.yul\":2733:2738   */\n      dup2\n        /* \"#utility.yul\":2727:2739   */\n      mload\n        /* \"#utility.yul\":2717:2739   */\n      swap1\n      pop\n        /* \"#utility.yul\":2647:2746   */\n      swap2\n      swap1\n      pop\n      jump\t// out\n        /* \"#utility.yul\":2752:2921   */\n    tag_53:\n        /* \"#utility.yul\":2836:2847   */\n      0x00\n        /* \"#utility.yul\":2870:2876   */\n      dup3\n        /* \"#utility.yul\":2865:2868   */\n      dup3\n        /* \"#utility.yul\":2858:2877   */\n      mstore\n        /* \"#utility.yul\":2910:2914   */\n      0x20\n        /* \"#utility.yul\":2905:2908   */\n      dup3\n        /* \"#utility.yul\":2901:2915   */\n      add\n        /* \"#utility.yul\":2886:2915   */\n      swap1\n      pop\n        /* \"#utility.yul\":2752:2921   */\n      swap3\n      swap2\n      pop\n      pop\n      jump\t// out\n        /* \"#utility.yul\":2927:3066   */\n    tag_54:\n        /* \"#utility.yul\":3016:3022   */\n      dup3\n        /* \"#utility.yul\":3011:3014   */\n      dup2\n        /* \"#utility.yul\":3006:3009   */\n      dup4\n        /* \"#utility.yul\":3000:3023   */\n      mcopy\n        /* \"#utility.yul\":3057:3058   */\n      0x00\n        /* \"#utility.yul\":3048:3054   */\n      dup4\n        /* \"#utility.yul\":3043:3046   */\n      dup4\n        /* \"#utility.yul\":3039:3055   */\n      add\n        /* \"#utility.yul\":3032:3059   */\n      mstore\n        /* \"#utility.yul\":2927:3066   */\n      pop\n      pop\n      pop\n      jump\t// out\n        /* \"#utility.yul\":3072:3174   */\n    tag_55:\n        /* \"#utility.yul\":3113:3119   */\n      0x00\n        /* \"#utility.yul\":3164:3166   */\n      0x1f\n        /* \"#utility.yul\":3160:3167   */\n      not\n        /* \"#utility.yul\":3155:3157   */\n      0x1f\n        /* \"#utility.yul\":3148:3153   */\n      dup4\n        /* \"#utility.yul\":3144:3158   */\n      add\n        /* \"#utility.yul\":3140:3168   */\n      and\n        /* \"#utility.yul\":3130:3168   */\n      swap1\n      pop\n        /* \"#utility.yul\":3072:3174   */\n      swap2\n      swap1\n      pop\n      jump\t// out\n        /* \"#utility.yul\":3180:3557   */\n    tag_56:\n        /* \"#utility.yul\":3268:3271   */\n      0x00\n        /* \"#utility.yul\":3296:3335   */\n      tag_120\n        /* \"#utility.yul\":3329:3334   */\n      dup3\n        /* \"#utility.yul\":3296:3335   */\n      tag_52\n      jump\t// in\n    tag_120:\n        /* \"#utility.yul\":3351:3422   */\n      tag_121\n        /* \"#utility.yul\":3415:3421   */\n      dup2\n        /* \"#utility.yul\":3410:3413   */\n      dup6\n        /* \"#utility.yul\":3351:3422   */\n      tag_53\n      jump\t// in\n    tag_121:\n        /* \"#utility.yul\":3344:3422   */\n      swap4\n      pop\n        /* \"#utility.yul\":3431:3496   */\n      tag_122\n        /* \"#utility.yul\":3489:3495   */\n      dup2\n        /* \"#utility.yul\":3484:3487   */\n      dup6\n        /* \"#utility.yul\":3477:3481   */\n      0x20\n        /* \"#utility.yul\":3470:3475   */\n      dup7\n        /* \"#utility.yul\":3466:3482   */\n      add\n        /* \"#utility.yul\":3431:3496   */\n      tag_54\n      jump\t// in\n    tag_122:\n        /* \"#utility.yul\":3521:3550   */\n      tag_123\n        /* \"#utility.yul\":3543:3549   */\n      dup2\n        /* \"#utility.yul\":3521:3550   */\n      tag_55\n      jump\t// in\n    tag_123:\n        /* \"#utility.yul\":3516:3519   */\n      dup5\n        /* \"#utility.yul\":3512:3551   */\n      add\n        /* \"#utility.yul\":3505:3551   */\n      swap2\n      pop\n        /* \"#utility.yul\":3272:3557   */\n      pop\n        /* \"#utility.yul\":3180:3557   */\n      swap3\n      swap2\n      pop\n      pop\n      jump\t// out\n        /* \"#utility.yul\":3563:3876   */\n    tag_14:\n        /* \"#utility.yul\":3676:3680   */\n      0x00\n        /* \"#utility.yul\":3714:3716   */\n      0x20\n        /* \"#utility.yul\":3703:3712   */\n      dup3\n        /* \"#utility.yul\":3699:3717   */\n      add\n        /* \"#utility.yul\":3691:3717   */\n      swap1\n      pop\n        /* \"#utility.yul\":3763:3772   */\n      dup2\n        /* \"#utility.yul\":3757:3761   */\n      dup2\n        /* \"#utility.yul\":3753:3773   */\n      sub\n        /* \"#utility.yul\":3749:3750   */\n      0x00\n        /* \"#utility.yul\":3738:3747   */\n      dup4\n        /* \"#utility.yul\":3734:3751   */\n      add\n        /* \"#utility.yul\":3727:3774   */\n      mstore\n        /* \"#utility.yul\":3791:3869   */\n      tag_125\n        /* \"#utility.yul\":3864:3868   */\n      dup2\n        /* \"#utility.yul\":3855:3861   */\n      dup5\n        /* \"#utility.yul\":3791:3869   */\n      tag_56\n      jump\t// in\n    tag_125:\n        /* \"#utility.yul\":3783:3869   */\n      swap1\n      pop\n        /* \"#utility.yul\":3563:3876   */\n      swap3\n      swap2\n      pop\n      pop\n      jump\t// out\n        /* \"#utility.yul\":3882:4000   */\n    tag_57:\n        /* \"#utility.yul\":3969:3993   */\n      tag_127\n        /* \"#utility.yul\":3987:3992   */\n      dup2\n        /* \"#utility.yul\":3969:3993   */\n      tag_45\n      jump\t// in\n    tag_127:\n        /* \"#utility.yul\":3964:3967   */\n      dup3\n        /* \"#utility.yul\":3957:3994   */\n      mstore\n        /* \"#utility.yul\":3882:4000   */\n      pop\n      pop\n      jump\t// out\n        /* \"#utility.yul\":4006:4228   */\n    tag_17:\n        /* \"#utility.yul\":4099:4103   */\n      0x00\n        /* \"#utility.yul\":4137:4139   */\n      0x20\n        /* \"#utility.yul\":4126:4135   */\n      dup3\n        /* \"#utility.yul\":4122:4140   */\n      add\n        /* \"#utility.yul\":4114:4140   */\n      swap1\n      pop\n        /* \"#utility.yul\":4150:4221   */\n      tag_129\n        /* \"#utility.yul\":4218:4219   */\n      0x00\n        /* \"#utility.yul\":4207:4216   */\n      dup4\n        /* \"#utility.yul\":4203:4220   */\n      add\n        /* \"#utility.yul\":4194:4200   */\n      dup5\n        /* \"#utility.yul\":4150:4221   */\n      tag_57\n      jump\t// in\n    tag_129:\n        /* \"#utility.yul\":4006:4228   */\n      swap3\n      swap2\n      pop\n      pop\n      jump\t// out\n        /* \"#utility.yul\":4234:4324   */\n    tag_58:\n        /* \"#utility.yul\":4268:4275   */\n      0x00\n        /* \"#utility.yul\":4311:4316   */\n      dup2\n        /* \"#utility.yul\":4304:4317   */\n      iszero\n        /* \"#utility.yul\":4297:4318   */\n      iszero\n        /* \"#utility.yul\":4286:4318   */\n      swap1\n      pop\n        /* \"#utility.yul\":4234:4324   */\n      swap2\n      swap1\n      pop\n      jump\t// out\n        /* \"#utility.yul\":4330:4446   */\n    tag_59:\n        /* \"#utility.yul\":4400:4421   */\n      tag_132\n        /* \"#utility.yul\":4415:4420   */\n      dup2\n        /* \"#utility.yul\":4400:4421   */\n      tag_58\n      jump\t// in\n    tag_132:\n        /* \"#utility.yul\":4393:4398   */\n      dup2\n        /* \"#utility.yul\":4390:4422   */\n      eq\n        /* \"#utility.yul\":4380:4440   */\n      tag_133\n      jumpi\n        /* \"#utility.yul\":4436:4437   */\n      0x00\n        /* \"#utility.yul\":4433:4434   */\n      dup1\n        /* \"#utility.yul\":4426:4438   */\n      revert\n        /* \"#utility.yul\":4380:4440   */\n    tag_133:\n        /* \"#utility.yul\":4330:4446   */\n      pop\n      jump\t// out\n        /* \"#utility.yul\":4452:4589   */\n    tag_60:\n        /* \"#utility.yul\":4506:4511   */\n      0x00\n        /* \"#utility.yul\":4537:4543   */\n      dup2\n        /* \"#utility.yul\":4531:4544   */\n      mload\n        /* \"#utility.yul\":4522:4544   */\n      swap1\n      pop\n        /* \"#utility.yul\":4553:4583   */\n      tag_135\n        /* \"#utility.yul\":4577:4582   */\n      dup2\n        /* \"#utility.yul\":4553:4583   */\n      tag_59\n      jump\t// in\n    tag_135:\n        /* \"#utility.yul\":4452:4589   */\n      swap3\n      swap2\n      pop\n      pop\n      jump\t// out\n        /* \"#utility.yul\":4595:4940   */\n    tag_21:\n        /* \"#utility.yul\":4662:4668   */\n      0x00\n        /* \"#utility.yul\":4711:4713   */\n      0x20\n        /* \"#utility.yul\":4699:4708   */\n      dup3\n        /* \"#utility.yul\":4690:4697   */\n      dup5\n        /* \"#utility.yul\":4686:4709   */\n      sub\n        /* \"#utility.yul\":4682:4714   */\n      slt\n        /* \"#utility.yul\":4679:4798   */\n      iszero\n      tag_137\n      jumpi\n        /* \"#utility.yul\":4717:4796   */\n      tag_138\n      tag_43\n      jump\t// in\n    tag_138:\n        /* \"#utility.yul\":4679:4798   */\n    tag_137:\n        /* \"#utility.yul\":4837:4838   */\n      0x00\n        /* \"#utility.yul\":4862:4923   */\n      tag_139\n        /* \"#utility.yul\":4915:4922   */\n      dup5\n        /* \"#utility.yul\":4906:4912   */\n      dup3\n        /* \"#utility.yul\":4895:4904   */\n      dup6\n        /* \"#utility.yul\":4891:4913   */\n      add\n        /* \"#utility.yul\":4862:4923   */\n      tag_60\n      jump\t// in\n    tag_139:\n        /* \"#utility.yul\":4852:4923   */\n      swap2\n      pop\n        /* \"#utility.yul\":4808:4933   */\n      pop\n        /* \"#utility.yul\":4595:4940   */\n      swap3\n      swap2\n      pop\n      pop\n      jump\t// out\n        /* \"#utility.yul\":4946:5118   */\n    tag_61:\n        /* \"#utility.yul\":5086:5110   */\n      0x446576696365206e6f7420726567697374657265642e00000000000000000000\n        /* \"#utility.yul\":5082:5083   */\n      0x00\n        /* \"#utility.yul\":5074:5080   */\n      dup3\n        /* \"#utility.yul\":5070:5084   */\n      add\n        /* \"#utility.yul\":5063:5111   */\n      mstore\n        /* \"#utility.yul\":4946:5118   */\n      pop\n      jump\t// out\n        /* \"#utility.yul\":5124:5490   */\n    tag_62:\n        /* \"#utility.yul\":5266:5269   */\n      0x00\n        /* \"#utility.yul\":5287:5354   */\n      tag_142\n        /* \"#utility.yul\":5351:5353   */\n      0x16\n        /* \"#utility.yul\":5346:5349   */\n      dup4\n        /* \"#utility.yul\":5287:5354   */\n      tag_53\n      jump\t// in\n    tag_142:\n        /* \"#utility.yul\":5280:5354   */\n      swap2\n      pop\n        /* \"#utility.yul\":5363:5456   */\n      tag_143\n        /* \"#utility.yul\":5452:5455   */\n      dup3\n        /* \"#utility.yul\":5363:5456   */\n      tag_61\n      jump\t// in\n    tag_143:\n        /* \"#utility.yul\":5481:5483   */\n      0x20\n        /* \"#utility.yul\":5476:5479   */\n      dup3\n        /* \"#utility.yul\":5472:5484   */\n      add\n        /* \"#utility.yul\":5465:5484   */\n      swap1\n      pop\n        /* \"#utility.yul\":5124:5490   */\n      swap2\n      swap1\n      pop\n      jump\t// out\n        /* \"#utility.yul\":5496:5915   */\n    tag_24:\n        /* \"#utility.yul\":5662:5666   */\n      0x00\n        /* \"#utility.yul\":5700:5702   */\n      0x20\n        /* \"#utility.yul\":5689:5698   */\n      dup3\n        /* \"#utility.yul\":5685:5703   */\n      add\n        /* \"#utility.yul\":5677:5703   */\n      swap1\n      pop\n        /* \"#utility.yul\":5749:5758   */\n      dup2\n        /* \"#utility.yul\":5743:5747   */\n      dup2\n        /* \"#utility.yul\":5739:5759   */\n      sub\n        /* \"#utility.yul\":5735:5736   */\n      0x00\n        /* \"#utility.yul\":5724:5733   */\n      dup4\n        /* \"#utility.yul\":5720:5737   */\n      add\n        /* \"#utility.yul\":5713:5760   */\n      mstore\n        /* \"#utility.yul\":5777:5908   */\n      tag_145\n        /* \"#utility.yul\":5903:5907   */\n      dup2\n        /* \"#utility.yul\":5777:5908   */\n      tag_62\n      jump\t// in\n    tag_145:\n        /* \"#utility.yul\":5769:5908   */\n      swap1\n      pop\n        /* \"#utility.yul\":5496:5915   */\n      swap2\n      swap1\n      pop\n      jump\t// out\n        /* \"#utility.yul\":5921:6018   */\n    tag_63:\n        /* \"#utility.yul\":5980:5986   */\n      0x00\n        /* \"#utility.yul\":6008:6011   */\n      dup3\n        /* \"#utility.yul\":5998:6011   */\n      swap1\n      pop\n        /* \"#utility.yul\":5921:6018   */\n      swap3\n      swap2\n      pop\n      pop\n      jump\t// out\n        /* \"#utility.yul\":6024:6204   */\n    tag_64:\n        /* \"#utility.yul\":6072:6149   */\n      0x4e487b7100000000000000000000000000000000000000000000000000000000\n        /* \"#utility.yul\":6069:6070   */\n      0x00\n        /* \"#utility.yul\":6062:6150   */\n      mstore\n        /* \"#utility.yul\":6169:6173   */\n      0x41\n        /* \"#utility.yul\":6166:6167   */\n      0x04\n        /* \"#utility.yul\":6159:6174   */\n      mstore\n        /* \"#utility.yul\":6193:6197   */\n      0x24\n        /* \"#utility.yul\":6190:6191   */\n      0x00\n        /* \"#utility.yul\":6183:6198   */\n      revert\n        /* \"#utility.yul\":6210:6390   */\n    tag_65:\n        /* \"#utility.yul\":6258:6335   */\n      0x4e487b7100000000000000000000000000000000000000000000000000000000\n        /* \"#utility.yul\":6255:6256   */\n      0x00\n        /* \"#utility.yul\":6248:6336   */\n      mstore\n        /* \"#utility.yul\":6355:6359   */\n      0x22\n        /* \"#utility.yul\":6352:6353   */\n      0x04\n        /* \"#utility.yul\":6345:6360   */\n      mstore\n        /* \"#utility.yul\":6379:6383   */\n      0x24\n        /* \"#utility.yul\":6376:6377   */\n      0x00\n        /* \"#utility.yul\":6369:6384   */\n      revert\n        /* \"#utility.yul\":6396:6716   */\n    tag_37:\n        /* \"#utility.yul\":6440:6446   */\n      0x00\n        /* \"#utility.yul\":6477:6478   */\n      0x02\n        /* \"#utility.yul\":6471:6475   */\n      dup3\n        /* \"#utility.yul\":6467:6479   */\n      div\n        /* \"#utility.yul\":6457:6479   */\n      swap1\n      pop\n        /* \"#utility.yul\":6524:6525   */\n      0x01\n        /* \"#utility.yul\":6518:6522   */\n      dup3\n        /* \"#utility.yul\":6514:6526   */\n      and\n        /* \"#utility.yul\":6545:6563   */\n      dup1\n        /* \"#utility.yul\":6535:6616   */\n      tag_150\n      jumpi\n        /* \"#utility.yul\":6601:6605   */\n      0x7f\n        /* \"#utility.yul\":6593:6599   */\n      dup3\n        /* \"#utility.yul\":6589:6606   */\n      and\n        /* \"#utility.yul\":6579:6606   */\n      swap2\n      pop\n        /* \"#utility.yul\":6535:6616   */\n    tag_150:\n        /* \"#utility.yul\":6663:6665   */\n      0x20\n        /* \"#utility.yul\":6655:6661   */\n      dup3\n        /* \"#utility.yul\":6652:6666   */\n      lt\n        /* \"#utility.yul\":6632:6650   */\n      dup2\n        /* \"#utility.yul\":6629:6667   */\n      sub\n        /* \"#utility.yul\":6626:6710   */\n      tag_151\n      jumpi\n        /* \"#utility.yul\":6682:6700   */\n      tag_152\n      tag_65\n      jump\t// in\n    tag_152:\n        /* \"#utility.yul\":6626:6710   */\n    tag_151:\n        /* \"#utility.yul\":6447:6716   */\n      pop\n        /* \"#utility.yul\":6396:6716   */\n      swap2\n      swap1\n      pop\n      jump\t// out\n        /* \"#utility.yul\":6722:6863   */\n    tag_66:\n        /* \"#utility.yul\":6771:6775   */\n      0x00\n        /* \"#utility.yul\":6794:6797   */\n      dup2\n        /* \"#utility.yul\":6786:6797   */\n      swap1\n      pop\n        /* \"#utility.yul\":6817:6820   */\n      dup2\n        /* \"#utility.yul\":6814:6815   */\n      0x00\n        /* \"#utility.yul\":6807:6821   */\n      mstore\n        /* \"#utility.yul\":6851:6855   */\n      0x20\n        /* \"#utility.yul\":6848:6849   */\n      0x00\n        /* \"#utility.yul\":6838:6856   */\n      keccak256\n        /* \"#utility.yul\":6830:6856   */\n      swap1\n      pop\n        /* \"#utility.yul\":6722:6863   */\n      swap2\n      swap1\n      pop\n      jump\t// out\n        /* \"#utility.yul\":6869:6962   */\n    tag_67:\n        /* \"#utility.yul\":6906:6912   */\n      0x00\n        /* \"#utility.yul\":6953:6955   */\n      0x20\n        /* \"#utility.yul\":6948:6950   */\n      0x1f\n        /* \"#utility.yul\":6941:6946   */\n      dup4\n        /* \"#utility.yul\":6937:6951   */\n      add\n        /* \"#utility.yul\":6933:6956   */\n      div\n        /* \"#utility.yul\":6923:6956   */\n      swap1\n      pop\n        /* \"#utility.yul\":6869:6962   */\n      swap2\n      swap1\n      pop\n      jump\t// out\n        /* \"#utility.yul\":6968:7075   */\n    tag_68:\n        /* \"#utility.yul\":7012:7020   */\n      0x00\n        /* \"#utility.yul\":7062:7067   */\n      dup3\n        /* \"#utility.yul\":7056:7060   */\n      dup3\n        /* \"#utility.yul\":7052:7068   */\n      shl\n        /* \"#utility.yul\":7031:7068   */\n      swap1\n      pop\n        /* \"#utility.yul\":6968:7075   */\n      swap3\n      swap2\n      pop\n      pop\n      jump\t// out\n        /* \"#utility.yul\":7081:7474   */\n    tag_69:\n        /* \"#utility.yul\":7150:7156   */\n      0x00\n        /* \"#utility.yul\":7200:7201   */\n      0x08\n        /* \"#utility.yul\":7188:7198   */\n      dup4\n        /* \"#utility.yul\":7184:7202   */\n      mul\n        /* \"#utility.yul\":7223:7320   */\n      tag_157\n        /* \"#utility.yul\":7253:7319   */\n      0xffffffffffffffffffffffffffffffffffffffffffffffffffffffffffffffff\n        /* \"#utility.yul\":7242:7251   */\n      dup3\n        /* \"#utility.yul\":7223:7320   */\n      tag_68\n      jump\t// in\n    tag_157:\n        /* \"#utility.yul\":7341:7380   */\n      tag_158\n        /* \"#utility.yul\":7371:7379   */\n      dup7\n        /* \"#utility.yul\":7360:7369   */\n      dup4\n        /* \"#utility.yul\":7341:7380   */\n      tag_68\n      jump\t// in\n    tag_158:\n        /* \"#utility.yul\":7329:7380   */\n      swap6\n      pop\n        /* \"#utility.yul\":7413:7417   */\n      dup1\n        /* \"#utility.yul\":7409:7418   */\n      not\n        /* \"#utility.yul\":7402:7407   */\n      dup5\n        /* \"#utility.yul\":7398:7419   */\n      and\n        /* \"#utility.yul\":7389:7419   */\n      swap4\n      pop\n        /* \"#utility.yul\":7462:7466   */\n      dup1\n        /* \"#utility.yul\":7452:7460   */\n      dup7\n        /* \"#utility.yul\":7448:7467   */\n      and\n        /* \"#utility.yul\":7441:7446   */\n      dup5\n        /* \"#utility.yul\":7438:7468   */\n      or\n        /* \"#utility.yul\":7428:7468   */\n      swap3\n      pop\n        /* \"#utility.yul\":7157:7474   */\n      pop\n      pop\n        /* \"#utility.yul\":7081:7474   */\n      swap4\n      swap3\n      pop\n      pop\n      pop\n      jump\t// out\n        /* \"#utility.yul\":7480:7557   */\n    tag_70:\n        /* \"#utility.yul\":7517:7524   */\n      0x00\n        /* \"#utility.yul\":7546:7551   */\n      dup2\n        /* \"#utility.yul\":7535:7551   */\n      swap1\n      pop\n        /* \"#utility.yul\":7480:7557   */\n      swap2\n      swap1\n      pop\n      jump\t// out\n        /* \"#utility.yul\":7563:7623   */\n    tag_71:\n        /* \"#utility.yul\":7591:7594   */\n      0x00\n        /* \"#utility.yul\":7612:7617   */\n      dup2\n        /* \"#utility.yul\":7605:7617   */\n      swap1\n      pop\n        /* \"#utility.yul\":7563:7623   */\n      swap2\n      swap1\n      pop\n      jump\t// out\n        /* \"#utility.yul\":7629:7771   */\n    tag_72:\n        /* \"#utility.yul\":7679:7688   */\n      0x00\n        /* \"#utility.yul\":7712:7765   */\n      tag_162\n        /* \"#utility.yul\":7730:7764   */\n      tag_163\n        /* \"#utility.yul\":7739:7763   */\n      tag_164\n        /* \"#utility.yul\":7757:7762   */\n      dup5\n        /* \"#utility.yul\":7739:7763   */\n      tag_70\n      jump\t// in\n    tag_164:\n        /* \"#utility.yul\":7730:7764   */\n      tag_71\n      jump\t// in\n    tag_163:\n        /* \"#utility.yul\":7712:7765   */\n      tag_70\n      jump\t// in\n    tag_162:\n        /* \"#utility.yul\":7699:7765   */\n      swap1\n      pop\n        /* \"#utility.yul\":7629:7771   */\n      swap2\n      swap1\n      pop\n      jump\t// out\n        /* \"#utility.yul\":7777:7852   */\n    tag_73:\n        /* \"#utility.yul\":7820:7823   */\n      0x00\n        /* \"#utility.yul\":7841:7846   */\n      dup2\n        /* \"#utility.yul\":7834:7846   */\n      swap1\n      pop\n        /* \"#utility.yul\":7777:7852   */\n      swap2\n      swap1\n      pop\n      jump\t// out\n        /* \"#utility.yul\":7858:8127   */\n    tag_74:\n        /* \"#utility.yul\":7968:8007   */\n      tag_167\n        /* \"#utility.yul\":7999:8006   */\n      dup4\n        /* \"#utility.yul\":7968:8007   */\n      tag_72\n      jump\t// in\n    tag_167:\n        /* \"#utility.yul\":8029:8120   */\n      tag_168\n        /* \"#utility.yul\":8078:8119   */\n      tag_169\n        /* \"#utility.yul\":8102:8118   */\n      dup3\n        /* \"#utility.yul\":8078:8119   */\n      tag_73\n      jump\t// in\n    tag_169:\n        /* \"#utility.yul\":8070:8076   */\n      dup5\n        /* \"#utility.yul\":8063:8067   */\n      dup5\n        /* \"#utility.yul\":8057:8068   */\n      sload\n        /* \"#utility.yul\":8029:8120   */\n      tag_69\n      jump\t// in\n    tag_168:\n        /* \"#utility.yul\":8023:8027   */\n      dup3\n        /* \"#utility.yul\":8016:8121   */\n      sstore\n        /* \"#utility.yul\":7934:8127   */\n      pop\n        /* \"#utility.yul\":7858:8127   */\n      pop\n      pop\n      pop\n      jump\t// out\n        /* \"#utility.yul\":8133:8206   */\n    tag_75:\n        /* \"#utility.yul\":8178:8181   */\n      0x00\n        /* \"#utility.yul\":8133:8206   */\n      swap1\n      jump\t// out\n        /* \"#utility.yul\":8212:8401   */\n    tag_76:\n        /* \"#utility.yul\":8289:8321   */\n      tag_172\n      tag_75\n      jump\t// in\n    tag_172:\n        /* \"#utility.yul\":8330:8395   */\n      tag_173\n        /* \"#utility.yul\":8388:8394   */\n      dup2\n        /* \"#utility.yul\":8380:8386   */\n      dup5\n        /* \"#utility.yul\":8374:8378   */\n      dup5\n        /* \"#utility.yul\":8330:8395   */\n      tag_74\n      jump\t// in\n    tag_173:\n        /* \"#utility.yul\":8265:8401   */\n      pop\n        /* \"#utility.yul\":8212:8401   */\n      pop\n      pop\n      jump\t// out\n        /* \"#utility.yul\":8407:8593   */\n    tag_77:\n        /* \"#utility.yul\":8467:8587   */\n    tag_175:\n        /* \"#utility.yul\":8484:8487   */\n      dup2\n        /* \"#utility.yul\":8477:8482   */\n      dup2\n        /* \"#utility.yul\":8474:8488   */\n      lt\n        /* \"#utility.yul\":8467:8587   */\n      iszero\n      tag_177\n      jumpi\n        /* \"#utility.yul\":8538:8577   */\n      tag_178\n        /* \"#utility.yul\":8575:8576   */\n      0x00\n        /* \"#utility.yul\":8568:8573   */\n      dup3\n        /* \"#utility.yul\":8538:8577   */\n      tag_76\n      jump\t// in\n    tag_178:\n        /* \"#utility.yul\":8511:8512   */\n      0x01\n        /* \"#utility.yul\":8504:8509   */\n      dup2\n        /* \"#utility.yul\":8500:8513   */\n      add\n        /* \"#utility.yul\":8491:8513   */\n      swap1\n      pop\n        /* \"#utility.yul\":8467:8587   */\n      jump(tag_175)\n    tag_177:\n        /* \"#utility.yul\":8407:8593   */\n      pop\n      pop\n      jump\t// out\n        /* \"#utility.yul\":8599:9142   */\n    tag_78:\n        /* \"#utility.yul\":8700:8702   */\n      0x1f\n        /* \"#utility.yul\":8695:8698   */\n      dup3\n        /* \"#utility.yul\":8692:8703   */\n      gt\n        /* \"#utility.yul\":8689:9135   */\n      iszero\n      tag_180\n      jumpi\n        /* \"#utility.yul\":8734:8772   */\n      tag_181\n        /* \"#utility.yul\":8766:8771   */\n      dup2\n        /* \"#utility.yul\":8734:8772   */\n      tag_66\n      jump\t// in\n    tag_181:\n        /* \"#utility.yul\":8818:8847   */\n      tag_182\n        /* \"#utility.yul\":8836:8846   */\n      dup5\n        /* \"#utility.yul\":8818:8847   */\n      tag_67\n      jump\t// in\n    tag_182:\n        /* \"#utility.yul\":8808:8816   */\n      dup2\n        /* \"#utility.yul\":8804:8848   */\n      add\n        /* \"#utility.yul\":9001:9003   */\n      0x20\n        /* \"#utility.yul\":8989:8999   */\n      dup6\n        /* \"#utility.yul\":8986:9004   */\n      lt\n        /* \"#utility.yul\":8983:9032   */\n      iszero\n      tag_183\n      jumpi\n        /* \"#utility.yul\":9022:9030   */\n      dup2\n        /* \"#utility.yul\":9007:9030   */\n      swap1\n      pop\n        /* \"#utility.yul\":8983:9032   */\n    tag_183:\n        /* \"#utility.yul\":9045:9125   */\n      tag_184\n        /* \"#utility.yul\":9101:9123   */\n      tag_185\n        /* \"#utility.yul\":9119:9122   */\n      dup6\n        /* \"#utility.yul\":9101:9123   */\n      tag_67\n      jump\t// in\n    tag_185:\n        /* \"#utility.yul\":9091:9099   */\n      dup4\n        /* \"#utility.yul\":9087:9124   */\n      add\n        /* \"#utility.yul\":9074:9085   */\n      dup3\n        /* \"#utility.yul\":9045:9125   */\n      tag_77\n      jump\t// in\n    tag_184:\n        /* \"#utility.yul\":8704:9135   */\n      pop\n      pop\n        /* \"#utility.yul\":8689:9135   */\n    tag_180:\n        /* \"#utility.yul\":8599:9142   */\n      pop\n      pop\n      pop\n      jump\t// out\n        /* \"#utility.yul\":9148:9265   */\n    tag_79:\n        /* \"#utility.yul\":9202:9210   */\n      0x00\n        /* \"#utility.yul\":9252:9257   */\n      dup3\n        /* \"#utility.yul\":9246:9250   */\n      dup3\n        /* \"#utility.yul\":9242:9258   */\n      shr\n        /* \"#utility.yul\":9221:9258   */\n      swap1\n      pop\n        /* \"#utility.yul\":9148:9265   */\n      swap3\n      swap2\n      pop\n      pop\n      jump\t// out\n        /* \"#utility.yul\":9271:9440   */\n    tag_80:\n        /* \"#utility.yul\":9315:9321   */\n      0x00\n        /* \"#utility.yul\":9348:9399   */\n      tag_188\n        /* \"#utility.yul\":9396:9397   */\n      0x00\n        /* \"#utility.yul\":9392:9398   */\n      not\n        /* \"#utility.yul\":9384:9389   */\n      dup5\n        /* \"#utility.yul\":9381:9382   */\n      0x08\n        /* \"#utility.yul\":9377:9390   */\n      mul\n        /* \"#utility.yul\":9348:9399   */\n      tag_79\n      jump\t// in\n    tag_188:\n        /* \"#utility.yul\":9344:9400   */\n      not\n        /* \"#utility.yul\":9429:9433   */\n      dup1\n        /* \"#utility.yul\":9423:9427   */\n      dup4\n        /* \"#utility.yul\":9419:9434   */\n      and\n        /* \"#utility.yul\":9409:9434   */\n      swap2\n      pop\n        /* \"#utility.yul\":9322:9440   */\n      pop\n        /* \"#utility.yul\":9271:9440   */\n      swap3\n      swap2\n      pop\n      pop\n      jump\t// out\n        /* \"#utility.yul\":9445:9740   */\n    tag_81:\n        /* \"#utility.yul\":9521:9525   */\n      0x00\n        /* \"#utility.yul\":9667:9696   */\n      tag_190\n        /* \"#utility.yul\":9692:9695   */\n      dup4\n        /* \"#utility.yul\":9686:9690   */\n      dup4\n        /* \"#utility.yul\":9667:9696   */\n      tag_80\n      jump\t// in\n    tag_190:\n        /* \"#utility.yul\":9659:9696   */\n      swap2\n      pop\n        /* \"#utility.yul\":9729:9732   */\n      dup3\n        /* \"#utility.yul\":9726:9727   */\n      0x02\n        /* \"#utility.yul\":9722:9733   */\n      mul\n        /* \"#utility.yul\":9716:9720   */\n      dup3\n        /* \"#utility.yul\":9713:9734   */\n      or\n        /* \"#utility.yul\":9705:9734   */\n      swap1\n      pop\n        /* \"#utility.yul\":9445:9740   */\n      swap3\n      swap2\n      pop\n      pop\n      jump\t// out\n        /* \"#utility.yul\":9745:11148   */\n    tag_26:\n        /* \"#utility.yul\":9869:9913   */\n      tag_192\n        /* \"#utility.yul\":9909:9912   */\n      dup4\n        /* \"#utility.yul\":9904:9907   */\n      dup4\n        /* \"#utility.yul\":9869:9913   */\n      tag_63\n      jump\t// in\n    tag_192:\n        /* \"#utility.yul\":9978:9996   */\n      0xffffffffffffffff\n        /* \"#utility.yul\":9970:9976   */\n      dup2\n        /* \"#utility.yul\":9967:9997   */\n      gt\n        /* \"#utility.yul\":9964:10020   */\n      iszero\n      tag_193\n      jumpi\n        /* \"#utility.yul\":10000:10018   */\n      tag_194\n      tag_64\n      jump\t// in\n    tag_194:\n        /* \"#utility.yul\":9964:10020   */\n    tag_193:\n        /* \"#utility.yul\":10044:10082   */\n      tag_195\n        /* \"#utility.yul\":10076:10080   */\n      dup3\n        /* \"#utility.yul\":10070:10081   */\n      sload\n        /* \"#utility.yul\":10044:10082   */\n      tag_37\n      jump\t// in\n    tag_195:\n        /* \"#utility.yul\":10129:10196   */\n      tag_196\n        /* \"#utility.yul\":10189:10195   */\n      dup3\n        /* \"#utility.yul\":10181:10187   */\n      dup3\n        /* \"#utility.yul\":10175:10179   */\n      dup6\n        /* \"#utility.yul\":10129:10196   */\n      tag_78\n      jump\t// in\n    tag_196:\n        /* \"#utility.yul\":10223:10224   */\n      0x00\n        /* \"#utility.yul\":10252:10254   */\n      0x1f\n        /* \"#utility.yul\":10244:10250   */\n      dup4\n        /* \"#utility.yul\":10241:10255   */\n      gt\n        /* \"#utility.yul\":10269:10270   */\n      0x01\n        /* \"#utility.yul\":10264:10896   */\n      dup2\n      eq\n      tag_198\n      jumpi\n        /* \"#utility.yul\":10940:10941   */\n      0x00\n        /* \"#utility.yul\":10957:10963   */\n      dup5\n        /* \"#utility.yul\":10954:11038   */\n      iszero\n      tag_199\n      jumpi\n        /* \"#utility.yul\":11013:11022   */\n      dup3\n        /* \"#utility.yul\":11008:11011   */\n      dup8\n        /* \"#utility.yul\":11004:11023   */\n      add\n        /* \"#utility.yul\":10991:11024   */\n      calldataload\n        /* \"#utility.yul\":10982:11024   */\n      swap1\n      pop\n        /* \"#utility.yul\":10954:11038   */\n    tag_199:\n        /* \"#utility.yul\":11064:11131   */\n      tag_200\n        /* \"#utility.yul\":11124:11130   */\n      dup6\n        /* \"#utility.yul\":11117:11122   */\n      dup3\n        /* \"#utility.yul\":11064:11131   */\n      tag_81\n      jump\t// in\n    tag_200:\n        /* \"#utility.yul\":11058:11062   */\n      dup7\n        /* \"#utility.yul\":11051:11132   */\n      sstore\n        /* \"#utility.yul\":10913:11142   */\n      pop\n        /* \"#utility.yul\":10234:11142   */\n      jump(tag_197)\n        /* \"#utility.yul\":10264:10896   */\n    tag_198:\n        /* \"#utility.yul\":10316:10320   */\n      0x1f\n        /* \"#utility.yul\":10312:10321   */\n      not\n        /* \"#utility.yul\":10304:10310   */\n      dup5\n        /* \"#utility.yul\":10300:10322   */\n      and\n        /* \"#utility.yul\":10350:10387   */\n      tag_201\n        /* \"#utility.yul\":10382:10386   */\n      dup7\n        /* \"#utility.yul\":10350:10387   */\n      tag_66\n      jump\t// in\n    tag_201:\n        /* \"#utility.yul\":10409:10410   */\n      0x00\n        /* \"#utility.yul\":10423:10638   */\n    tag_202:\n        /* \"#utility.yul\":10437:10444   */\n      dup3\n        /* \"#utility.yul\":10434:10435   */\n      dup2\n        /* \"#utility.yul\":10431:10445   */\n      lt\n        /* \"#utility.yul\":10423:10638   */\n      iszero\n      tag_204\n      jumpi\n        /* \"#utility.yul\":10523:10532   */\n      dup5\n        /* \"#utility.yul\":10518:10521   */\n      dup10\n        /* \"#utility.yul\":10514:10533   */\n      add\n        /* \"#utility.yul\":10501:10534   */\n      calldataload\n        /* \"#utility.yul\":10493:10499   */\n      dup3\n        /* \"#utility.yul\":10486:10535   */\n      sstore\n        /* \"#utility.yul\":10574:10575   */\n      0x01\n        /* \"#utility.yul\":10566:10572   */\n      dup3\n        /* \"#utility.yul\":10562:10576   */\n      add\n        /* \"#utility.yul\":10552:10576   */\n      swap2\n      pop\n        /* \"#utility.yul\":10621:10623   */\n      0x20\n        /* \"#utility.yul\":10610:10619   */\n      dup6\n        /* \"#utility.yul\":10606:10624   */\n      add\n        /* \"#utility.yul\":10593:10624   */\n      swap5\n      pop\n        /* \"#utility.yul\":10460:10464   */\n      0x20\n        /* \"#utility.yul\":10457:10458   */\n      dup2\n        /* \"#utility.yul\":10453:10465   */\n      add\n        /* \"#utility.yul\":10448:10465   */\n      swap1\n      pop\n        /* \"#utility.yul\":10423:10638   */\n      jump(tag_202)\n    tag_204:\n        /* \"#utility.yul\":10666:10672   */\n      dup7\n        /* \"#utility.yul\":10657:10664   */\n      dup4\n        /* \"#utility.yul\":10654:10673   */\n      lt\n        /* \"#utility.yul\":10651:10837   */\n      iszero\n      tag_205\n      jumpi\n        /* \"#utility.yul\":10731:10740   */\n      dup5\n        /* \"#utility.yul\":10726:10729   */\n      dup10\n        /* \"#utility.yul\":10722:10741   */\n      add\n        /* \"#utility.yul\":10709:10742   */\n      calldataload\n        /* \"#utility.yul\":10774:10822   */\n      tag_206\n        /* \"#utility.yul\":10816:10820   */\n      0x1f\n        /* \"#utility.yul\":10808:10814   */\n      dup10\n        /* \"#utility.yul\":10804:10821   */\n      and\n        /* \"#utility.yul\":10793:10802   */\n      dup3\n        /* \"#utility.yul\":10774:10822   */\n      tag_80\n      jump\t// in\n    tag_206:\n        /* \"#utility.yul\":10766:10772   */\n      dup4\n        /* \"#utility.yul\":10759:10823   */\n      sstore\n        /* \"#utility.yul\":10674:10837   */\n      pop\n        /* \"#utility.yul\":10651:10837   */\n    tag_205:\n        /* \"#utility.yul\":10883:10884   */\n      0x01\n        /* \"#utility.yul\":10879:10880   */\n      0x02\n        /* \"#utility.yul\":10871:10877   */\n      dup9\n        /* \"#utility.yul\":10867:10881   */\n      mul\n        /* \"#utility.yul\":10863:10885   */\n      add\n        /* \"#utility.yul\":10857:10861   */\n      dup9\n        /* \"#utility.yul\":10850:10886   */\n      sstore\n        /* \"#utility.yul\":10271:10896   */\n      pop\n      pop\n      pop\n        /* \"#utility.yul\":10234:11142   */\n    tag_197:\n      pop\n        /* \"#utility.yul\":9844:11148   */\n      pop\n      pop\n      pop\n        /* \"#utility.yul\":9745:11148   */\n      pop\n      pop\n      pop\n      jump\t// out\n        /* \"#utility.yul\":11154:11302   */\n    tag_82:\n        /* \"#utility.yul\":11252:11258   */\n      dup3\n        /* \"#utility.yul\":11247:11250   */\n      dup2\n        /* \"#utility.yul\":11242:11245   */\n      dup4\n        /* \"#utility.yul\":11229:11259   */\n      calldatacopy\n        /* \"#utility.yul\":11293:11294   */\n      0x00\n        /* \"#utility.yul\":11284:11290   */\n      dup4\n        /* \"#utility.yul\":11279:11282   */\n      dup4\n        /* \"#utility.yul\":11275:11291   */\n      add\n        /* \"#utility.yul\":11268:11295   */\n      mstore\n        /* \"#utility.yul\":11154:11302   */\n      pop\n      pop\n      pop\n      jump\t// out\n        /* \"#utility.yul\":11332:11649   */\n    tag_83:\n        /* \"#utility.yul\":11430:11433   */\n      0x00\n        /* \"#utility.yul\":11451:11522   */\n      tag_209\n        /* \"#utility.yul\":11515:11521   */\n      dup4\n        /* \"#utility.yul\":11510:11513   */\n      dup6\n        /* \"#utility.yul\":11451:11522   */\n      tag_53\n      jump\t// in\n    tag_209:\n        /* \"#utility.yul\":11444:11522   */\n      swap4\n      pop\n        /* \"#utility.yul\":11532:11588   */\n      tag_210\n        /* \"#utility.yul\":11581:11587   */\n      dup4\n        /* \"#utility.yul\":11576:11579   */\n      dup6\n        /* \"#utility.yul\":11569:11574   */\n      dup5\n        /* \"#utility.yul\":11532:11588   */\n      tag_82\n      jump\t// in\n    tag_210:\n        /* \"#utility.yul\":11613:11642   */\n      tag_211\n        /* \"#utility.yul\":11635:11641   */\n      dup4\n        /* \"#utility.yul\":11613:11642   */\n      tag_55\n      jump\t// in\n    tag_211:\n        /* \"#utility.yul\":11608:11611   */\n      dup5\n        /* \"#utility.yul\":11604:11643   */\n      add\n        /* \"#utility.yul\":11597:11643   */\n      swap1\n      pop\n        /* \"#utility.yul\":11332:11649   */\n      swap4\n      swap3\n      pop\n      pop\n      pop\n      jump\t// out\n        /* \"#utility.yul\":11655:11988   */\n    tag_28:\n        /* \"#utility.yul\":11778:11782   */\n      0x00\n        /* \"#utility.yul\":11816:11818   */\n      0x20\n        /* \"#utility.yul\":11805:11814   */\n      dup3\n        /* \"#utility.yul\":11801:11819   */\n      add\n        /* \"#utility.yul\":11793:11819   */\n      swap1\n      pop\n        /* \"#utility.yul\":11865:11874   */\n      dup2\n        /* \"#utility.yul\":11859:11863   */\n      dup2\n        /* \"#utility.yul\":11855:11875   */\n      sub\n        /* \"#utility.yul\":11851:11852   */\n      0x00\n        /* \"#utility.yul\":11840:11849   */\n      dup4\n        /* \"#utility.yul\":11836:11853   */\n      add\n        /* \"#utility.yul\":11829:11876   */\n      mstore\n        /* \"#utility.yul\":11893:11981   */\n      tag_213\n        /* \"#utility.yul\":11976:11980   */\n      dup2\n        /* \"#utility.yul\":11967:11973   */\n      dup5\n        /* \"#utility.yul\":11959:11965   */\n      dup7\n        /* \"#utility.yul\":11893:11981   */\n      tag_83\n      jump\t// in\n    tag_213:\n        /* \"#utility.yul\":11885:11981   */\n      swap1\n      pop\n        /* \"#utility.yul\":11655:11988   */\n      swap4\n      swap3\n      pop\n      pop\n      pop\n      jump\t// out\n\n    auxdata: 0xa2646970667358221220563e41385ea0594ece08c1856ab03aa9ec8ffb2e44e19ed750fa58e1af7149ce64736f6c63430008190033\n}\n",
				"bytecode": {
					"linkReferences": {},
					"object": "608060405234801561000f575f80fd5b50604051610a78380380610a78833981810160405281019061003191906100d4565b805f806101000a81548173ffffffffffffffffffffffffffffffffffffffff021916908373ffffffffffffffffffffffffffffffffffffffff160217905550506100ff565b5f80fd5b5f73ffffffffffffffffffffffffffffffffffffffff82169050919050565b5f6100a38261007a565b9050919050565b6100b381610099565b81146100bd575f80fd5b50565b5f815190506100ce816100aa565b92915050565b5f602082840312156100e9576100e8610076565b5b5f6100f6848285016100c0565b91505092915050565b61096c8061010c5f395ff3fe608060405234801561000f575f80fd5b5060043610610034575f3560e01c806353794a931461003857806354f6127f14610054575b5f80fd5b610052600480360381019061004d91906103cb565b610084565b005b61006e60048036038101906100699190610428565b6101b9565b60405161007b91906104c3565b60405180910390f35b5f8054906101000a900473ffffffffffffffffffffffffffffffffffffffff1673ffffffffffffffffffffffffffffffffffffffff1662921e69846040518263ffffffff1660e01b81526004016100db91906104f2565b602060405180830381865afa1580156100f6573d5f803e3d5ffd5b505050506040513d601f19601f8201168201806040525081019061011a9190610540565b610159576040517f08c379a0000000000000000000000000000000000000000000000000000000008152600401610150906105b5565b60405180910390fd5b818160015f8681526020019081526020015f20918261017992919061080d565b50827fb47f325ec5ac1f68149ca2686e2905c3e99b66bbeb96c5926eb5f91b7ba6388d83836040516101ac929190610914565b60405180910390a2505050565b60605f8054906101000a900473ffffffffffffffffffffffffffffffffffffffff1673ffffffffffffffffffffffffffffffffffffffff1662921e69836040518263ffffffff1660e01b815260040161021291906104f2565b602060405180830381865afa15801561022d573d5f803e3d5ffd5b505050506040513d601f19601f820116820180604052508101906102519190610540565b610290576040517f08c379a0000000000000000000000000000000000000000000000000000000008152600401610287906105b5565b60405180910390fd5b60015f8381526020019081526020015f2080546102ac90610637565b80601f01602080910402602001604051908101604052809291908181526020018280546102d890610637565b80156103235780601f106102fa57610100808354040283529160200191610323565b820191905f5260205f20905b81548152906001019060200180831161030657829003601f168201915b50505050509050919050565b5f80fd5b5f80fd5b5f819050919050565b61034981610337565b8114610353575f80fd5b50565b5f8135905061036481610340565b92915050565b5f80fd5b5f80fd5b5f80fd5b5f8083601f84011261038b5761038a61036a565b5b8235905067ffffffffffffffff8111156103a8576103a761036e565b5b6020830191508360018202830111156103c4576103c3610372565b5b9250929050565b5f805f604084860312156103e2576103e161032f565b5b5f6103ef86828701610356565b935050602084013567ffffffffffffffff8111156104105761040f610333565b5b61041c86828701610376565b92509250509250925092565b5f6020828403121561043d5761043c61032f565b5b5f61044a84828501610356565b91505092915050565b5f81519050919050565b5f82825260208201905092915050565b8281835e5f83830152505050565b5f601f19601f8301169050919050565b5f61049582610453565b61049f818561045d565b93506104af81856020860161046d565b6104b88161047b565b840191505092915050565b5f6020820190508181035f8301526104db818461048b565b905092915050565b6104ec81610337565b82525050565b5f6020820190506105055f8301846104e3565b92915050565b5f8115159050919050565b61051f8161050b565b8114610529575f80fd5b50565b5f8151905061053a81610516565b92915050565b5f602082840312156105555761055461032f565b5b5f6105628482850161052c565b91505092915050565b7f446576696365206e6f7420726567697374657265642e000000000000000000005f82015250565b5f61059f60168361045d565b91506105aa8261056b565b602082019050919050565b5f6020820190508181035f8301526105cc81610593565b9050919050565b5f82905092915050565b7f4e487b71000000000000000000000000000000000000000000000000000000005f52604160045260245ffd5b7f4e487b71000000000000000000000000000000000000000000000000000000005f52602260045260245ffd5b5f600282049050600182168061064e57607f821691505b6020821081036106615761066061060a565b5b50919050565b5f819050815f5260205f209050919050565b5f6020601f8301049050919050565b5f82821b905092915050565b5f600883026106c37fffffffffffffffffffffffffffffffffffffffffffffffffffffffffffffffff82610688565b6106cd8683610688565b95508019841693508086168417925050509392505050565b5f819050919050565b5f819050919050565b5f61071161070c610707846106e5565b6106ee565b6106e5565b9050919050565b5f819050919050565b61072a836106f7565b61073e61073682610718565b848454610694565b825550505050565b5f90565b610752610746565b61075d818484610721565b505050565b5b81811015610780576107755f8261074a565b600181019050610763565b5050565b601f8211156107c55761079681610667565b61079f84610679565b810160208510156107ae578190505b6107c26107ba85610679565b830182610762565b50505b505050565b5f82821c905092915050565b5f6107e55f19846008026107ca565b1980831691505092915050565b5f6107fd83836107d6565b9150826002028217905092915050565b61081783836105d3565b67ffffffffffffffff8111156108305761082f6105dd565b5b61083a8254610637565b610845828285610784565b5f601f831160018114610872575f8415610860578287013590505b61086a85826107f2565b8655506108d1565b601f19841661088086610667565b5f5b828110156108a757848901358255600182019150602085019450602081019050610882565b868310156108c457848901356108c0601f8916826107d6565b8355505b6001600288020188555050505b50505050505050565b828183375f83830152505050565b5f6108f3838561045d565b93506109008385846108da565b6109098361047b565b840190509392505050565b5f6020820190508181035f83015261092d8184866108e8565b9050939250505056fea2646970667358221220563e41385ea0594ece08c1856ab03aa9ec8ffb2e44e19ed750fa58e1af7149ce64736f6c63430008190033",
					"opcodes": "PUSH1 0x80 PUSH1 0x40 MSTORE CALLVALUE DUP1 ISZERO PUSH2 0xF JUMPI PUSH0 DUP1 REVERT JUMPDEST POP PUSH1 0x40 MLOAD PUSH2 0xA78 CODESIZE SUB DUP1 PUSH2 0xA78 DUP4 CODECOPY DUP2 DUP2 ADD PUSH1 0x40 MSTORE DUP2 ADD SWAP1 PUSH2 0x31 SWAP2 SWAP1 PUSH2 0xD4 JUMP JUMPDEST DUP1 PUSH0 DUP1 PUSH2 0x100 EXP DUP2 SLOAD DUP2 PUSH20 0xFFFFFFFFFFFFFFFFFFFFFFFFFFFFFFFFFFFFFFFF MUL NOT AND SWAP1 DUP4 PUSH20 0xFFFFFFFFFFFFFFFFFFFFFFFFFFFFFFFFFFFFFFFF AND MUL OR SWAP1 SSTORE POP POP PUSH2 0xFF JUMP JUMPDEST PUSH0 DUP1 REVERT JUMPDEST PUSH0 PUSH20 0xFFFFFFFFFFFFFFFFFFFFFFFFFFFFFFFFFFFFFFFF DUP3 AND SWAP1 POP SWAP2 SWAP1 POP JUMP JUMPDEST PUSH0 PUSH2 0xA3 DUP3 PUSH2 0x7A JUMP JUMPDEST SWAP1 POP SWAP2 SWAP1 POP JUMP JUMPDEST PUSH2 0xB3 DUP2 PUSH2 0x99 JUMP JUMPDEST DUP2 EQ PUSH2 0xBD JUMPI PUSH0 DUP1 REVERT JUMPDEST POP JUMP JUMPDEST PUSH0 DUP2 MLOAD SWAP1 POP PUSH2 0xCE DUP2 PUSH2 0xAA JUMP JUMPDEST SWAP3 SWAP2 POP POP JUMP JUMPDEST PUSH0 PUSH1 0x20 DUP3 DUP5 SUB SLT ISZERO PUSH2 0xE9 JUMPI PUSH2 0xE8 PUSH2 0x76 JUMP JUMPDEST JUMPDEST PUSH0 PUSH2 0xF6 DUP5 DUP3 DUP6 ADD PUSH2 0xC0 JUMP JUMPDEST SWAP2 POP POP SWAP3 SWAP2 POP POP JUMP JUMPDEST PUSH2 0x96C DUP1 PUSH2 0x10C PUSH0 CODECOPY PUSH0 RETURN INVALID PUSH1 0x80 PUSH1 0x40 MSTORE CALLVALUE DUP1 ISZERO PUSH2 0xF JUMPI PUSH0 DUP1 REVERT JUMPDEST POP PUSH1 0x4 CALLDATASIZE LT PUSH2 0x34 JUMPI PUSH0 CALLDATALOAD PUSH1 0xE0 SHR DUP1 PUSH4 0x53794A93 EQ PUSH2 0x38 JUMPI DUP1 PUSH4 0x54F6127F EQ PUSH2 0x54 JUMPI JUMPDEST PUSH0 DUP1 REVERT JUMPDEST PUSH2 0x52 PUSH1 0x4 DUP1 CALLDATASIZE SUB DUP2 ADD SWAP1 PUSH2 0x4D SWAP2 SWAP1 PUSH2 0x3CB JUMP JUMPDEST PUSH2 0x84 JUMP JUMPDEST STOP JUMPDEST PUSH2 0x6E PUSH1 0x4 DUP1 CALLDATASIZE SUB DUP2 ADD SWAP1 PUSH2 0x69 SWAP2 SWAP1 PUSH2 0x428 JUMP JUMPDEST PUSH2 0x1B9 JUMP JUMPDEST PUSH1 0x40 MLOAD PUSH2 0x7B SWAP2 SWAP1 PUSH2 0x4C3 JUMP JUMPDEST PUSH1 0x40 MLOAD DUP1 SWAP2 SUB SWAP1 RETURN JUMPDEST PUSH0 DUP1 SLOAD SWAP1 PUSH2 0x100 EXP SWAP1 DIV PUSH20 0xFFFFFFFFFFFFFFFFFFFFFFFFFFFFFFFFFFFFFFFF AND PUSH20 0xFFFFFFFFFFFFFFFFFFFFFFFFFFFFFFFFFFFFFFFF AND PUSH3 0x921E69 DUP5 PUSH1 0x40 MLOAD DUP3 PUSH4 0xFFFFFFFF AND PUSH1 0xE0 SHL DUP2 MSTORE PUSH1 0x4 ADD PUSH2 0xDB SWAP2 SWAP1 PUSH2 0x4F2 JUMP JUMPDEST PUSH1 0x20 PUSH1 0x40 MLOAD DUP1 DUP4 SUB DUP2 DUP7 GAS STATICCALL ISZERO DUP1 ISZERO PUSH2 0xF6 JUMPI RETURNDATASIZE PUSH0 DUP1 RETURNDATACOPY RETURNDATASIZE PUSH0 REVERT JUMPDEST POP POP POP POP PUSH1 0x40 MLOAD RETURNDATASIZE PUSH1 0x1F NOT PUSH1 0x1F DUP3 ADD AND DUP3 ADD DUP1 PUSH1 0x40 MSTORE POP DUP2 ADD SWAP1 PUSH2 0x11A SWAP2 SWAP1 PUSH2 0x540 JUMP JUMPDEST PUSH2 0x159 JUMPI PUSH1 0x40 MLOAD PUSH32 0x8C379A000000000000000000000000000000000000000000000000000000000 DUP2 MSTORE PUSH1 0x4 ADD PUSH2 0x150 SWAP1 PUSH2 0x5B5 JUMP JUMPDEST PUSH1 0x40 MLOAD DUP1 SWAP2 SUB SWAP1 REVERT JUMPDEST DUP2 DUP2 PUSH1 0x1 PUSH0 DUP7 DUP2 MSTORE PUSH1 0x20 ADD SWAP1 DUP2 MSTORE PUSH1 0x20 ADD PUSH0 KECCAK256 SWAP2 DUP3 PUSH2 0x179 SWAP3 SWAP2 SWAP1 PUSH2 0x80D JUMP JUMPDEST POP DUP3 PUSH32 0xB47F325EC5AC1F68149CA2686E2905C3E99B66BBEB96C5926EB5F91B7BA6388D DUP4 DUP4 PUSH1 0x40 MLOAD PUSH2 0x1AC SWAP3 SWAP2 SWAP1 PUSH2 0x914 JUMP JUMPDEST PUSH1 0x40 MLOAD DUP1 SWAP2 SUB SWAP1 LOG2 POP POP POP JUMP JUMPDEST PUSH1 0x60 PUSH0 DUP1 SLOAD SWAP1 PUSH2 0x100 EXP SWAP1 DIV PUSH20 0xFFFFFFFFFFFFFFFFFFFFFFFFFFFFFFFFFFFFFFFF AND PUSH20 0xFFFFFFFFFFFFFFFFFFFFFFFFFFFFFFFFFFFFFFFF AND PUSH3 0x921E69 DUP4 PUSH1 0x40 MLOAD DUP3 PUSH4 0xFFFFFFFF AND PUSH1 0xE0 SHL DUP2 MSTORE PUSH1 0x4 ADD PUSH2 0x212 SWAP2 SWAP1 PUSH2 0x4F2 JUMP JUMPDEST PUSH1 0x20 PUSH1 0x40 MLOAD DUP1 DUP4 SUB DUP2 DUP7 GAS STATICCALL ISZERO DUP1 ISZERO PUSH2 0x22D JUMPI RETURNDATASIZE PUSH0 DUP1 RETURNDATACOPY RETURNDATASIZE PUSH0 REVERT JUMPDEST POP POP POP POP PUSH1 0x40 MLOAD RETURNDATASIZE PUSH1 0x1F NOT PUSH1 0x1F DUP3 ADD AND DUP3 ADD DUP1 PUSH1 0x40 MSTORE POP DUP2 ADD SWAP1 PUSH2 0x251 SWAP2 SWAP1 PUSH2 0x540 JUMP JUMPDEST PUSH2 0x290 JUMPI PUSH1 0x40 MLOAD PUSH32 0x8C379A000000000000000000000000000000000000000000000000000000000 DUP2 MSTORE PUSH1 0x4 ADD PUSH2 0x287 SWAP1 PUSH2 0x5B5 JUMP JUMPDEST PUSH1 0x40 MLOAD DUP1 SWAP2 SUB SWAP1 REVERT JUMPDEST PUSH1 0x1 PUSH0 DUP4 DUP2 MSTORE PUSH1 0x20 ADD SWAP1 DUP2 MSTORE PUSH1 0x20 ADD PUSH0 KECCAK256 DUP1 SLOAD PUSH2 0x2AC SWAP1 PUSH2 0x637 JUMP JUMPDEST DUP1 PUSH1 0x1F ADD PUSH1 0x20 DUP1 SWAP2 DIV MUL PUSH1 0x20 ADD PUSH1 0x40 MLOAD SWAP1 DUP2 ADD PUSH1 0x40 MSTORE DUP1 SWAP3 SWAP2 SWAP1 DUP2 DUP2 MSTORE PUSH1 0x20 ADD DUP3 DUP1 SLOAD PUSH2 0x2D8 SWAP1 PUSH2 0x637 JUMP JUMPDEST DUP1 ISZERO PUSH2 0x323 JUMPI DUP1 PUSH1 0x1F LT PUSH2 0x2FA JUMPI PUSH2 0x100 DUP1 DUP4 SLOAD DIV MUL DUP4 MSTORE SWAP2 PUSH1 0x20 ADD SWAP2 PUSH2 0x323 JUMP JUMPDEST DUP3 ADD SWAP2 SWAP1 PUSH0 MSTORE PUSH1 0x20 PUSH0 KECCAK256 SWAP1 JUMPDEST DUP2 SLOAD DUP2 MSTORE SWAP1 PUSH1 0x1 ADD SWAP1 PUSH1 0x20 ADD DUP1 DUP4 GT PUSH2 0x306 JUMPI DUP3 SWAP1 SUB PUSH1 0x1F AND DUP3 ADD SWAP2 JUMPDEST POP POP POP POP POP SWAP1 POP SWAP2 SWAP1 POP JUMP JUMPDEST PUSH0 DUP1 REVERT JUMPDEST PUSH0 DUP1 REVERT JUMPDEST PUSH0 DUP2 SWAP1 POP SWAP2 SWAP1 POP JUMP JUMPDEST PUSH2 0x349 DUP2 PUSH2 0x337 JUMP JUMPDEST DUP2 EQ PUSH2 0x353 JUMPI PUSH0 DUP1 REVERT JUMPDEST POP JUMP JUMPDEST PUSH0 DUP2 CALLDATALOAD SWAP1 POP PUSH2 0x364 DUP2 PUSH2 0x340 JUMP JUMPDEST SWAP3 SWAP2 POP POP JUMP JUMPDEST PUSH0 DUP1 REVERT JUMPDEST PUSH0 DUP1 REVERT JUMPDEST PUSH0 DUP1 REVERT JUMPDEST PUSH0 DUP1 DUP4 PUSH1 0x1F DUP5 ADD SLT PUSH2 0x38B JUMPI PUSH2 0x38A PUSH2 0x36A JUMP JUMPDEST JUMPDEST DUP3 CALLDATALOAD SWAP1 POP PUSH8 0xFFFFFFFFFFFFFFFF DUP2 GT ISZERO PUSH2 0x3A8 JUMPI PUSH2 0x3A7 PUSH2 0x36E JUMP JUMPDEST JUMPDEST PUSH1 0x20 DUP4 ADD SWAP2 POP DUP4 PUSH1 0x1 DUP3 MUL DUP4 ADD GT ISZERO PUSH2 0x3C4 JUMPI PUSH2 0x3C3 PUSH2 0x372 JUMP JUMPDEST JUMPDEST SWAP3 POP SWAP3 SWAP1 POP JUMP JUMPDEST PUSH0 DUP1 PUSH0 PUSH1 0x40 DUP5 DUP7 SUB SLT ISZERO PUSH2 0x3E2 JUMPI PUSH2 0x3E1 PUSH2 0x32F JUMP JUMPDEST JUMPDEST PUSH0 PUSH2 0x3EF DUP7 DUP3 DUP8 ADD PUSH2 0x356 JUMP JUMPDEST SWAP4 POP POP PUSH1 0x20 DUP5 ADD CALLDATALOAD PUSH8 0xFFFFFFFFFFFFFFFF DUP2 GT ISZERO PUSH2 0x410 JUMPI PUSH2 0x40F PUSH2 0x333 JUMP JUMPDEST JUMPDEST PUSH2 0x41C DUP7 DUP3 DUP8 ADD PUSH2 0x376 JUMP JUMPDEST SWAP3 POP SWAP3 POP POP SWAP3 POP SWAP3 POP SWAP3 JUMP JUMPDEST PUSH0 PUSH1 0x20 DUP3 DUP5 SUB SLT ISZERO PUSH2 0x43D JUMPI PUSH2 0x43C PUSH2 0x32F JUMP JUMPDEST JUMPDEST PUSH0 PUSH2 0x44A DUP5 DUP3 DUP6 ADD PUSH2 0x356 JUMP JUMPDEST SWAP2 POP POP SWAP3 SWAP2 POP POP JUMP JUMPDEST PUSH0 DUP2 MLOAD SWAP1 POP SWAP2 SWAP1 POP JUMP JUMPDEST PUSH0 DUP3 DUP3 MSTORE PUSH1 0x20 DUP3 ADD SWAP1 POP SWAP3 SWAP2 POP POP JUMP JUMPDEST DUP3 DUP2 DUP4 MCOPY PUSH0 DUP4 DUP4 ADD MSTORE POP POP POP JUMP JUMPDEST PUSH0 PUSH1 0x1F NOT PUSH1 0x1F DUP4 ADD AND SWAP1 POP SWAP2 SWAP1 POP JUMP JUMPDEST PUSH0 PUSH2 0x495 DUP3 PUSH2 0x453 JUMP JUMPDEST PUSH2 0x49F DUP2 DUP6 PUSH2 0x45D JUMP JUMPDEST SWAP4 POP PUSH2 0x4AF DUP2 DUP6 PUSH1 0x20 DUP7 ADD PUSH2 0x46D JUMP JUMPDEST PUSH2 0x4B8 DUP2 PUSH2 0x47B JUMP JUMPDEST DUP5 ADD SWAP2 POP POP SWAP3 SWAP2 POP POP JUMP JUMPDEST PUSH0 PUSH1 0x20 DUP3 ADD SWAP1 POP DUP2 DUP2 SUB PUSH0 DUP4 ADD MSTORE PUSH2 0x4DB DUP2 DUP5 PUSH2 0x48B JUMP JUMPDEST SWAP1 POP SWAP3 SWAP2 POP POP JUMP JUMPDEST PUSH2 0x4EC DUP2 PUSH2 0x337 JUMP JUMPDEST DUP3 MSTORE POP POP JUMP JUMPDEST PUSH0 PUSH1 0x20 DUP3 ADD SWAP1 POP PUSH2 0x505 PUSH0 DUP4 ADD DUP5 PUSH2 0x4E3 JUMP JUMPDEST SWAP3 SWAP2 POP POP JUMP JUMPDEST PUSH0 DUP2 ISZERO ISZERO SWAP1 POP SWAP2 SWAP1 POP JUMP JUMPDEST PUSH2 0x51F DUP2 PUSH2 0x50B JUMP JUMPDEST DUP2 EQ PUSH2 0x529 JUMPI PUSH0 DUP1 REVERT JUMPDEST POP JUMP JUMPDEST PUSH0 DUP2 MLOAD SWAP1 POP PUSH2 0x53A DUP2 PUSH2 0x516 JUMP JUMPDEST SWAP3 SWAP2 POP POP JUMP JUMPDEST PUSH0 PUSH1 0x20 DUP3 DUP5 SUB SLT ISZERO PUSH2 0x555 JUMPI PUSH2 0x554 PUSH2 0x32F JUMP JUMPDEST JUMPDEST PUSH0 PUSH2 0x562 DUP5 DUP3 DUP6 ADD PUSH2 0x52C JUMP JUMPDEST SWAP2 POP POP SWAP3 SWAP2 POP POP JUMP JUMPDEST PUSH32 0x446576696365206E6F7420726567697374657265642E00000000000000000000 PUSH0 DUP3 ADD MSTORE POP JUMP JUMPDEST PUSH0 PUSH2 0x59F PUSH1 0x16 DUP4 PUSH2 0x45D JUMP JUMPDEST SWAP2 POP PUSH2 0x5AA DUP3 PUSH2 0x56B JUMP JUMPDEST PUSH1 0x20 DUP3 ADD SWAP1 POP SWAP2 SWAP1 POP JUMP JUMPDEST PUSH0 PUSH1 0x20 DUP3 ADD SWAP1 POP DUP2 DUP2 SUB PUSH0 DUP4 ADD MSTORE PUSH2 0x5CC DUP2 PUSH2 0x593 JUMP JUMPDEST SWAP1 POP SWAP2 SWAP1 POP JUMP JUMPDEST PUSH0 DUP3 SWAP1 POP SWAP3 SWAP2 POP POP JUMP JUMPDEST PUSH32 0x4E487B7100000000000000000000000000000000000000000000000000000000 PUSH0 MSTORE PUSH1 0x41 PUSH1 0x4 MSTORE PUSH1 0x24 PUSH0 REVERT JUMPDEST PUSH32 0x4E487B7100000000000000000000000000000000000000000000000000000000 PUSH0 MSTORE PUSH1 0x22 PUSH1 0x4 MSTORE PUSH1 0x24 PUSH0 REVERT JUMPDEST PUSH0 PUSH1 0x2 DUP3 DIV SWAP1 POP PUSH1 0x1 DUP3 AND DUP1 PUSH2 0x64E JUMPI PUSH1 0x7F DUP3 AND SWAP2 POP JUMPDEST PUSH1 0x20 DUP3 LT DUP2 SUB PUSH2 0x661 JUMPI PUSH2 0x660 PUSH2 0x60A JUMP JUMPDEST JUMPDEST POP SWAP2 SWAP1 POP JUMP JUMPDEST PUSH0 DUP2 SWAP1 POP DUP2 PUSH0 MSTORE PUSH1 0x20 PUSH0 KECCAK256 SWAP1 POP SWAP2 SWAP1 POP JUMP JUMPDEST PUSH0 PUSH1 0x20 PUSH1 0x1F DUP4 ADD DIV SWAP1 POP SWAP2 SWAP1 POP JUMP JUMPDEST PUSH0 DUP3 DUP3 SHL SWAP1 POP SWAP3 SWAP2 POP POP JUMP JUMPDEST PUSH0 PUSH1 0x8 DUP4 MUL PUSH2 0x6C3 PUSH32 0xFFFFFFFFFFFFFFFFFFFFFFFFFFFFFFFFFFFFFFFFFFFFFFFFFFFFFFFFFFFFFFFF DUP3 PUSH2 0x688 JUMP JUMPDEST PUSH2 0x6CD DUP7 DUP4 PUSH2 0x688 JUMP JUMPDEST SWAP6 POP DUP1 NOT DUP5 AND SWAP4 POP DUP1 DUP7 AND DUP5 OR SWAP3 POP POP POP SWAP4 SWAP3 POP POP POP JUMP JUMPDEST PUSH0 DUP2 SWAP1 POP SWAP2 SWAP1 POP JUMP JUMPDEST PUSH0 DUP2 SWAP1 POP SWAP2 SWAP1 POP JUMP JUMPDEST PUSH0 PUSH2 0x711 PUSH2 0x70C PUSH2 0x707 DUP5 PUSH2 0x6E5 JUMP JUMPDEST PUSH2 0x6EE JUMP JUMPDEST PUSH2 0x6E5 JUMP JUMPDEST SWAP1 POP SWAP2 SWAP1 POP JUMP JUMPDEST PUSH0 DUP2 SWAP1 POP SWAP2 SWAP1 POP JUMP JUMPDEST PUSH2 0x72A DUP4 PUSH2 0x6F7 JUMP JUMPDEST PUSH2 0x73E PUSH2 0x736 DUP3 PUSH2 0x718 JUMP JUMPDEST DUP5 DUP5 SLOAD PUSH2 0x694 JUMP JUMPDEST DUP3 SSTORE POP POP POP POP JUMP JUMPDEST PUSH0 SWAP1 JUMP JUMPDEST PUSH2 0x752 PUSH2 0x746 JUMP JUMPDEST PUSH2 0x75D DUP2 DUP5 DUP5 PUSH2 0x721 JUMP JUMPDEST POP POP POP JUMP JUMPDEST JUMPDEST DUP2 DUP2 LT ISZERO PUSH2 0x780 JUMPI PUSH2 0x775 PUSH0 DUP3 PUSH2 0x74A JUMP JUMPDEST PUSH1 0x1 DUP2 ADD SWAP1 POP PUSH2 0x763 JUMP JUMPDEST POP POP JUMP JUMPDEST PUSH1 0x1F DUP3 GT ISZERO PUSH2 0x7C5 JUMPI PUSH2 0x796 DUP2 PUSH2 0x667 JUMP JUMPDEST PUSH2 0x79F DUP5 PUSH2 0x679 JUMP JUMPDEST DUP2 ADD PUSH1 0x20 DUP6 LT ISZERO PUSH2 0x7AE JUMPI DUP2 SWAP1 POP JUMPDEST PUSH2 0x7C2 PUSH2 0x7BA DUP6 PUSH2 0x679 JUMP JUMPDEST DUP4 ADD DUP3 PUSH2 0x762 JUMP JUMPDEST POP POP JUMPDEST POP POP POP JUMP JUMPDEST PUSH0 DUP3 DUP3 SHR SWAP1 POP SWAP3 SWAP2 POP POP JUMP JUMPDEST PUSH0 PUSH2 0x7E5 PUSH0 NOT DUP5 PUSH1 0x8 MUL PUSH2 0x7CA JUMP JUMPDEST NOT DUP1 DUP4 AND SWAP2 POP POP SWAP3 SWAP2 POP POP JUMP JUMPDEST PUSH0 PUSH2 0x7FD DUP4 DUP4 PUSH2 0x7D6 JUMP JUMPDEST SWAP2 POP DUP3 PUSH1 0x2 MUL DUP3 OR SWAP1 POP SWAP3 SWAP2 POP POP JUMP JUMPDEST PUSH2 0x817 DUP4 DUP4 PUSH2 0x5D3 JUMP JUMPDEST PUSH8 0xFFFFFFFFFFFFFFFF DUP2 GT ISZERO PUSH2 0x830 JUMPI PUSH2 0x82F PUSH2 0x5DD JUMP JUMPDEST JUMPDEST PUSH2 0x83A DUP3 SLOAD PUSH2 0x637 JUMP JUMPDEST PUSH2 0x845 DUP3 DUP3 DUP6 PUSH2 0x784 JUMP JUMPDEST PUSH0 PUSH1 0x1F DUP4 GT PUSH1 0x1 DUP2 EQ PUSH2 0x872 JUMPI PUSH0 DUP5 ISZERO PUSH2 0x860 JUMPI DUP3 DUP8 ADD CALLDATALOAD SWAP1 POP JUMPDEST PUSH2 0x86A DUP6 DUP3 PUSH2 0x7F2 JUMP JUMPDEST DUP7 SSTORE POP PUSH2 0x8D1 JUMP JUMPDEST PUSH1 0x1F NOT DUP5 AND PUSH2 0x880 DUP7 PUSH2 0x667 JUMP JUMPDEST PUSH0 JUMPDEST DUP3 DUP2 LT ISZERO PUSH2 0x8A7 JUMPI DUP5 DUP10 ADD CALLDATALOAD DUP3 SSTORE PUSH1 0x1 DUP3 ADD SWAP2 POP PUSH1 0x20 DUP6 ADD SWAP5 POP PUSH1 0x20 DUP2 ADD SWAP1 POP PUSH2 0x882 JUMP JUMPDEST DUP7 DUP4 LT ISZERO PUSH2 0x8C4 JUMPI DUP5 DUP10 ADD CALLDATALOAD PUSH2 0x8C0 PUSH1 0x1F DUP10 AND DUP3 PUSH2 0x7D6 JUMP JUMPDEST DUP4 SSTORE POP JUMPDEST PUSH1 0x1 PUSH1 0x2 DUP9 MUL ADD DUP9 SSTORE POP POP POP JUMPDEST POP POP POP POP POP POP POP JUMP JUMPDEST DUP3 DUP2 DUP4 CALLDATACOPY PUSH0 DUP4 DUP4 ADD MSTORE POP POP POP JUMP JUMPDEST PUSH0 PUSH2 0x8F3 DUP4 DUP6 PUSH2 0x45D JUMP JUMPDEST SWAP4 POP PUSH2 0x900 DUP4 DUP6 DUP5 PUSH2 0x8DA JUMP JUMPDEST PUSH2 0x909 DUP4 PUSH2 0x47B JUMP JUMPDEST DUP5 ADD SWAP1 POP SWAP4 SWAP3 POP POP POP JUMP JUMPDEST PUSH0 PUSH1 0x20 DUP3 ADD SWAP1 POP DUP2 DUP2 SUB PUSH0 DUP4 ADD MSTORE PUSH2 0x92D DUP2 DUP5 DUP7 PUSH2 0x8E8 JUMP JUMPDEST SWAP1 POP SWAP4 SWAP3 POP POP POP JUMP INVALID LOG2 PUSH5 0x6970667358 0x22 SLT KECCAK256 JUMP RETURNDATACOPY COINBASE CODESIZE MCOPY LOG0 MSIZE 0x4E 0xCE ADDMOD 0xC1 DUP6 PUSH11 0xB03AA9EC8FFB2E44E19ED7 POP STATICCALL PC 0xE1 0xAF PUSH18 0x49CE64736F6C634300081900330000000000 "
				},
				"gasEstimates": {
					"creation": {
						"codeDepositCost": "482400",
						"executionCost": "infinite",
						"totalCost": "infinite"
					},
					"external": {
						"getData(bytes32)": "infinite",
						"storeData(bytes32,string)": "infinite"
					}
				},
				"methodIdentifiers": {
					"getData(bytes32)": "54f6127f",
					"storeData(bytes32,string)": "53794a93"
				}
			},
			"storageLayout": {
				"storage": [
					{
						"astId": 6,
						"contract": "contracts/IoTDataStorage.sol:IoTDataStorage",
						"label": "authContract",
						"offset": 0,
						"slot": "0",
						"type": "t_contract(IoTDeviceAuth)156"
					},
					{
						"astId": 22,
						"contract": "contracts/IoTDataStorage.sol:IoTDataStorage",
						"label": "deviceData",
						"offset": 0,
						"slot": "1",
						"type": "t_mapping(t_bytes32,t_string_storage)"
					}
				],
				"types": {
					"t_bytes32": {
						"encoding": "inplace",
						"label": "bytes32",
						"numberOfBytes": "32"
					},
					"t_contract(IoTDeviceAuth)156": {
						"encoding": "inplace",
						"label": "contract IoTDeviceAuth",
						"numberOfBytes": "20"
					},
					"t_mapping(t_bytes32,t_string_storage)": {
						"encoding": "mapping",
						"key": "t_bytes32",
						"label": "mapping(bytes32 => string)",
						"numberOfBytes": "32",
						"value": "t_string_storage"
					},
					"t_string_storage": {
						"encoding": "bytes",
						"label": "string",
						"numberOfBytes": "32"
					}
				}
			},
			"userdoc": {
				"kind": "user",
				"methods": {},
				"version": 1
			}
		}
	}
}