{
  "contractName": "AccessControl",
  "abi": [
    {
      "inputs": [
        {
          "internalType": "address",
          "name": "_dataStorageAddress",
          "type": "address"
        }
      ],
      "stateMutability": "nonpayable",
      "type": "constructor"
    },
    {
      "anonymous": false,
      "inputs": [
        {
          "indexed": true,
          "internalType": "address",
          "name": "user",
          "type": "address"
        },
        {
          "indexed": false,
          "internalType": "bytes32",
          "name": "deviceId",
          "type": "bytes32"
        }
      ],
      "name": "AccessGranted",
      "type": "event"
    },
    {
      "anonymous": false,
      "inputs": [
        {
          "indexed": true,
          "internalType": "address",
          "name": "user",
          "type": "address"
        },
        {
          "indexed": false,
          "internalType": "bytes32",
          "name": "deviceId",
          "type": "bytes32"
        }
      ],
      "name": "AccessRevoked",
      "type": "event"
    },
    {
      "inputs": [
        {
          "internalType": "address",
          "name": "",
          "type": "address"
        },
        {
          "internalType": "bytes32",
          "name": "",
          "type": "bytes32"
        }
      ],
      "name": "userAccess",
      "outputs": [
        {
          "internalType": "bool",
          "name": "",
          "type": "bool"
        }
      ],
      "stateMutability": "view",
      "type": "function",
      "constant": true
    },
    {
      "inputs": [
        {
          "internalType": "address",
          "name": "user",
          "type": "address"
        },
        {
          "internalType": "bytes32",
          "name": "deviceId",
          "type": "bytes32"
        }
      ],
      "name": "grantAccess",
      "outputs": [],
      "stateMutability": "nonpayable",
      "type": "function"
    },
    {
      "inputs": [
        {
          "internalType": "address",
          "name": "user",
          "type": "address"
        },
        {
          "internalType": "bytes32",
          "name": "deviceId",
          "type": "bytes32"
        }
      ],
      "name": "revokeAccess",
      "outputs": [],
      "stateMutability": "nonpayable",
      "type": "function"
    },
    {
      "inputs": [
        {
          "internalType": "address",
          "name": "user",
          "type": "address"
        },
        {
          "internalType": "bytes32",
          "name": "deviceId",
          "type": "bytes32"
        }
      ],
      "name": "checkAccess",
      "outputs": [
        {
          "internalType": "bool",
          "name": "",
          "type": "bool"
        }
      ],
      "stateMutability": "view",
      "type": "function",
      "constant": true
    }
  ],
  "bytecode": "0x608060405234801561001057600080fd5b5060405161057b38038061057b833981810160405281019061003291906100db565b806000806101000a81548173ffffffffffffffffffffffffffffffffffffffff021916908373ffffffffffffffffffffffffffffffffffffffff16021790555050610108565b600080fd5b600073ffffffffffffffffffffffffffffffffffffffff82169050919050565b60006100a88261007d565b9050919050565b6100b88161009d565b81146100c357600080fd5b50565b6000815190506100d5816100af565b92915050565b6000602082840312156100f1576100f0610078565b5b60006100ff848285016100c6565b91505092915050565b610464806101176000396000f3fe608060405234801561001057600080fd5b506004361061004c5760003560e01c80630f95416d146100515780631ba82d421461006d578063731251631461009d5780637461f24a146100b9575b600080fd5b61006b6004803603810190610066919061038e565b6100e9565b005b6100876004803603810190610082919061038e565b6101a3565b60405161009491906103e9565b60405180910390f35b6100b760048036038101906100b2919061038e565b6101d2565b005b6100d360048036038101906100ce919061038e565b61028d565b6040516100e091906103e9565b60405180910390f35b60018060008473ffffffffffffffffffffffffffffffffffffffff1673ffffffffffffffffffffffffffffffffffffffff168152602001908152602001600020600083815260200190815260200160002060006101000a81548160ff0219169083151502179055508173ffffffffffffffffffffffffffffffffffffffff167fbd4f54568b7c91392f03009967e46b0688bd75843f35612613c087fd973cea53826040516101979190610413565b60405180910390a25050565b60016020528160005260406000206020528060005260406000206000915091509054906101000a900460ff1681565b6000600160008473ffffffffffffffffffffffffffffffffffffffff1673ffffffffffffffffffffffffffffffffffffffff168152602001908152602001600020600083815260200190815260200160002060006101000a81548160ff0219169083151502179055508173ffffffffffffffffffffffffffffffffffffffff167f6161f38d7bcbdabae613358e81c1e09bb790d78ad5ef6863c32d798ca667fa90826040516102819190610413565b60405180910390a25050565b6000600160008473ffffffffffffffffffffffffffffffffffffffff1673ffffffffffffffffffffffffffffffffffffffff168152602001908152602001600020600083815260200190815260200160002060009054906101000a900460ff16905092915050565b600080fd5b600073ffffffffffffffffffffffffffffffffffffffff82169050919050565b6000610325826102fa565b9050919050565b6103358161031a565b811461034057600080fd5b50565b6000813590506103528161032c565b92915050565b6000819050919050565b61036b81610358565b811461037657600080fd5b50565b60008135905061038881610362565b92915050565b600080604083850312156103a5576103a46102f5565b5b60006103b385828601610343565b92505060206103c485828601610379565b9150509250929050565b60008115159050919050565b6103e3816103ce565b82525050565b60006020820190506103fe60008301846103da565b92915050565b61040d81610358565b82525050565b60006020820190506104286000830184610404565b9291505056fea2646970667358221220130e60d4afa600c10eacbb4dc0f494e994b8a6983e4d86d8e2d4fd06b2dd7bd364736f6c63430008120033",
  "immutableReferences": {},
  "source": "// SPDX-License-Identifier: MIT\npragma solidity ^0.8.18;\n\nimport \"./IoTDataStorage.sol\";\n\n/**\n * @title AccessControl\n * @dev Manages access control policies for IoT data.\n */\ncontract AccessControl {\n    IoTDataStorage private dataStorage;\n\n    // Constructor to set the data storage contract address\n    constructor(address _dataStorageAddress) {\n        dataStorage = IoTDataStorage(_dataStorageAddress);\n    }\n\n    // Mapping from user to access rights per device\n    mapping(address => mapping(bytes32 => bool)) public userAccess;\n\n    // Event for granting access rights\n    event AccessGranted(address indexed user, bytes32 deviceId);\n    // Event for revoking access rights\n    event AccessRevoked(address indexed user, bytes32 deviceId);\n\n    /**\n     * @dev Grants a user access to a specific IoT device's data.\n     * @param user The address of the user.\n     * @param deviceId The unique identifier of the IoT device.\n     */\n    function grantAccess(address user, bytes32 deviceId) external {\n        userAccess[user][deviceId] = true;\n        emit AccessGranted(user, deviceId);\n    }\n\n    /**\n     * @dev Revokes a user's access to a specific IoT device's data.\n     * @param user The address of the user.\n     * @param deviceId The unique identifier of the IoT device.\n     */\n    function revokeAccess(address user, bytes32 deviceId) external {\n        userAccess[user][deviceId] = false;\n        emit AccessRevoked(user, deviceId);\n    }\n\n    /**\n     * @dev Checks if a user has access to a specific device's data.\n     * @param user The address of the user.\n     * @param deviceId The unique identifier of the IoT device.\n     * @return bool True if the user has access, false otherwise.\n     */\n    function checkAccess(address user, bytes32 deviceId) public view returns (bool) {\n        return userAccess[user][deviceId];\n    }\n}\n",
  "sourcePath": "/Users/omarmezzour/Desktop/Secure Internet of Things (IoT) Network with Blockchain/contracts/AccessControl.sol",
  "compiler": {
    "name": "solc",
    "version": "0.8.18+commit.87f61d96.Emscripten.clang"
  },
  "schemaVersion": "3.4.16",
  "updatedAt": "2024-05-11T17:55:25.540Z",
  "networkType": "ethereum",
  "devdoc": {
    "details": "Manages access control policies for IoT data.",
    "kind": "dev",
    "methods": {
      "checkAccess(address,bytes32)": {
        "details": "Checks if a user has access to a specific device's data.",
        "params": {
          "deviceId": "The unique identifier of the IoT device.",
          "user": "The address of the user."
        },
        "returns": {
          "_0": "bool True if the user has access, false otherwise."
        }
      },
      "grantAccess(address,bytes32)": {
        "details": "Grants a user access to a specific IoT device's data.",
        "params": {
          "deviceId": "The unique identifier of the IoT device.",
          "user": "The address of the user."
        }
      },
      "revokeAccess(address,bytes32)": {
        "details": "Revokes a user's access to a specific IoT device's data.",
        "params": {
          "deviceId": "The unique identifier of the IoT device.",
          "user": "The address of the user."
        }
      }
    },
    "title": "AccessControl",
    "version": 1
  },
  "userdoc": {
    "kind": "user",
    "methods": {},
    "version": 1
  }
}