{
  "contractName": "IoTDataStorage",
  "abi": [
    {
      "inputs": [
        {
          "internalType": "address",
          "name": "_authContractAddress",
          "type": "address"
        }
      ],
      "stateMutability": "nonpayable",
      "type": "constructor"
    },
    {
      "anonymous": false,
      "inputs": [
        {
          "indexed": true,
          "internalType": "bytes32",
          "name": "deviceId",
          "type": "bytes32"
        },
        {
          "indexed": false,
          "internalType": "string",
          "name": "data",
          "type": "string"
        }
      ],
      "name": "DataStored",
      "type": "event"
    },
    {
      "inputs": [
        {
          "internalType": "bytes32",
          "name": "deviceId",
          "type": "bytes32"
        },
        {
          "internalType": "string",
          "name": "data",
          "type": "string"
        }
      ],
      "name": "storeData",
      "outputs": [],
      "stateMutability": "nonpayable",
      "type": "function"
    },
    {
      "inputs": [
        {
          "internalType": "bytes32",
          "name": "deviceId",
          "type": "bytes32"
        }
      ],
      "name": "getData",
      "outputs": [
        {
          "internalType": "string",
          "name": "",
          "type": "string"
        }
      ],
      "stateMutability": "view",
      "type": "function",
      "constant": true
    }
  ],
  "bytecode": "0x608060405234801561001057600080fd5b50604051610aea380380610aea833981810160405281019061003291906100db565b806000806101000a81548173ffffffffffffffffffffffffffffffffffffffff021916908373ffffffffffffffffffffffffffffffffffffffff16021790555050610108565b600080fd5b600073ffffffffffffffffffffffffffffffffffffffff82169050919050565b60006100a88261007d565b9050919050565b6100b88161009d565b81146100c357600080fd5b50565b6000815190506100d5816100af565b92915050565b6000602082840312156100f1576100f0610078565b5b60006100ff848285016100c6565b91505092915050565b6109d3806101176000396000f3fe608060405234801561001057600080fd5b50600436106100365760003560e01c806353794a931461003b57806354f6127f14610057575b600080fd5b610055600480360381019061005091906103e3565b610087565b005b610071600480360381019061006c9190610443565b6101c1565b60405161007e9190610500565b60405180910390f35b60008054906101000a900473ffffffffffffffffffffffffffffffffffffffff1673ffffffffffffffffffffffffffffffffffffffff1662921e69846040518263ffffffff1660e01b81526004016100df9190610531565b602060405180830381865afa1580156100fc573d6000803e3d6000fd5b505050506040513d601f19601f820116820180604052508101906101209190610584565b61015f576040517f08c379a0000000000000000000000000000000000000000000000000000000008152600401610156906105fd565b60405180910390fd5b818160016000868152602001908152602001600020918261018192919061086d565b50827fb47f325ec5ac1f68149ca2686e2905c3e99b66bbeb96c5926eb5f91b7ba6388d83836040516101b4929190610979565b60405180910390a2505050565b606060008054906101000a900473ffffffffffffffffffffffffffffffffffffffff1673ffffffffffffffffffffffffffffffffffffffff1662921e69836040518263ffffffff1660e01b815260040161021b9190610531565b602060405180830381865afa158015610238573d6000803e3d6000fd5b505050506040513d601f19601f8201168201806040525081019061025c9190610584565b61029b576040517f08c379a0000000000000000000000000000000000000000000000000000000008152600401610292906105fd565b60405180910390fd5b6001600083815260200190815260200160002080546102b990610686565b80601f01602080910402602001604051908101604052809291908181526020018280546102e590610686565b80156103325780601f1061030757610100808354040283529160200191610332565b820191906000526020600020905b81548152906001019060200180831161031557829003601f168201915b50505050509050919050565b600080fd5b600080fd5b6000819050919050565b61035b81610348565b811461036657600080fd5b50565b60008135905061037881610352565b92915050565b600080fd5b600080fd5b600080fd5b60008083601f8401126103a3576103a261037e565b5b8235905067ffffffffffffffff8111156103c0576103bf610383565b5b6020830191508360018202830111156103dc576103db610388565b5b9250929050565b6000806000604084860312156103fc576103fb61033e565b5b600061040a86828701610369565b935050602084013567ffffffffffffffff81111561042b5761042a610343565b5b6104378682870161038d565b92509250509250925092565b6000602082840312156104595761045861033e565b5b600061046784828501610369565b91505092915050565b600081519050919050565b600082825260208201905092915050565b60005b838110156104aa57808201518184015260208101905061048f565b60008484015250505050565b6000601f19601f8301169050919050565b60006104d282610470565b6104dc818561047b565b93506104ec81856020860161048c565b6104f5816104b6565b840191505092915050565b6000602082019050818103600083015261051a81846104c7565b905092915050565b61052b81610348565b82525050565b60006020820190506105466000830184610522565b92915050565b60008115159050919050565b6105618161054c565b811461056c57600080fd5b50565b60008151905061057e81610558565b92915050565b60006020828403121561059a5761059961033e565b5b60006105a88482850161056f565b91505092915050565b7f446576696365206e6f7420726567697374657265642e00000000000000000000600082015250565b60006105e760168361047b565b91506105f2826105b1565b602082019050919050565b60006020820190508181036000830152610616816105da565b9050919050565b600082905092915050565b7f4e487b7100000000000000000000000000000000000000000000000000000000600052604160045260246000fd5b7f4e487b7100000000000000000000000000000000000000000000000000000000600052602260045260246000fd5b6000600282049050600182168061069e57607f821691505b6020821081036106b1576106b0610657565b5b50919050565b60008190508160005260206000209050919050565b60006020601f8301049050919050565b600082821b905092915050565b6000600883026107197fffffffffffffffffffffffffffffffffffffffffffffffffffffffffffffffff826106dc565b61072386836106dc565b95508019841693508086168417925050509392505050565b6000819050919050565b6000819050919050565b600061076a6107656107608461073b565b610745565b61073b565b9050919050565b6000819050919050565b6107848361074f565b61079861079082610771565b8484546106e9565b825550505050565b600090565b6107ad6107a0565b6107b881848461077b565b505050565b5b818110156107dc576107d16000826107a5565b6001810190506107be565b5050565b601f821115610821576107f2816106b7565b6107fb846106cc565b8101602085101561080a578190505b61081e610816856106cc565b8301826107bd565b50505b505050565b600082821c905092915050565b600061084460001984600802610826565b1980831691505092915050565b600061085d8383610833565b9150826002028217905092915050565b610877838361061d565b67ffffffffffffffff8111156108905761088f610628565b5b61089a8254610686565b6108a58282856107e0565b6000601f8311600181146108d457600084156108c2578287013590505b6108cc8582610851565b865550610934565b601f1984166108e2866106b7565b60005b8281101561090a578489013582556001820191506020850194506020810190506108e5565b868310156109275784890135610923601f891682610833565b8355505b6001600288020188555050505b50505050505050565b82818337600083830152505050565b6000610958838561047b565b935061096583858461093d565b61096e836104b6565b840190509392505050565b6000602082019050818103600083015261099481848661094c565b9050939250505056fea26469706673582212204bb1be52daee5ef4ea1761173e1ef3c59a2e54a44473a1e9da6aa18a2b5b498064736f6c63430008120033",
  "immutableReferences": {},
  "source": "// SPDX-License-Identifier: MIT\npragma solidity ^0.8.18;\n\nimport \"./IoTDeviceAuth.sol\";\n\n/**\n * @title IoTDataStorage\n * @dev Manages secure storage and retrieval of IoT data.\n */\ncontract IoTDataStorage {\n    IoTDeviceAuth private authContract;\n\n    // Constructor to set the authentication contract address\n    constructor(address _authContractAddress) {\n        authContract = IoTDeviceAuth(_authContractAddress);\n    }\n\n    // Mapping from device ID to data\n    mapping(bytes32 => string) private deviceData;\n\n    // Event for data storage\n    event DataStored(bytes32 indexed deviceId, string data);\n\n    /**\n     * @dev Stores data from an IoT device.\n     * @param deviceId The unique identifier of the device.\n     * @param data The encrypted data string.\n     */\n    function storeData(bytes32 deviceId, string calldata data) external {\n        require(authContract.checkDevice(deviceId), \"Device not registered.\");\n        deviceData[deviceId] = data;\n        emit DataStored(deviceId, data);\n    }\n\n    /**\n     * @dev Retrieves data for a specific IoT device.\n     * @param deviceId The unique identifier of the device.\n     * @return string The stored data.\n     */\n    function getData(bytes32 deviceId) public view returns (string memory) {\n        require(authContract.checkDevice(deviceId), \"Device not registered.\");\n        return deviceData[deviceId];\n    }\n}",
  "sourcePath": "/Users/omarmezzour/Desktop/Secure Internet of Things (IoT) Network with Blockchain/contracts/IoTDataStorage.sol",
  "compiler": {
    "name": "solc",
    "version": "0.8.18+commit.87f61d96.Emscripten.clang"
  },
  "schemaVersion": "3.4.16",
  "updatedAt": "2024-05-11T17:55:25.637Z",
  "networkType": "ethereum",
  "devdoc": {
    "details": "Manages secure storage and retrieval of IoT data.",
    "kind": "dev",
    "methods": {
      "getData(bytes32)": {
        "details": "Retrieves data for a specific IoT device.",
        "params": {
          "deviceId": "The unique identifier of the device."
        },
        "returns": {
          "_0": "string The stored data."
        }
      },
      "storeData(bytes32,string)": {
        "details": "Stores data from an IoT device.",
        "params": {
          "data": "The encrypted data string.",
          "deviceId": "The unique identifier of the device."
        }
      }
    },
    "title": "IoTDataStorage",
    "version": 1
  },
  "userdoc": {
    "kind": "user",
    "methods": {},
    "version": 1
  }
}