{
  "contractName": "IoTDeviceAuth",
  "abi": [
    {
      "anonymous": false,
      "inputs": [
        {
          "indexed": true,
          "internalType": "bytes32",
          "name": "deviceId",
          "type": "bytes32"
        }
      ],
      "name": "DeviceRegistered",
      "type": "event"
    },
    {
      "anonymous": false,
      "inputs": [
        {
          "indexed": true,
          "internalType": "bytes32",
          "name": "deviceId",
          "type": "bytes32"
        }
      ],
      "name": "DeviceUnregistered",
      "type": "event"
    },
    {
      "inputs": [
        {
          "internalType": "bytes32",
          "name": "",
          "type": "bytes32"
        }
      ],
      "name": "isRegistered",
      "outputs": [
        {
          "internalType": "bool",
          "name": "",
          "type": "bool"
        }
      ],
      "stateMutability": "view",
      "type": "function",
      "constant": true
    },
    {
      "inputs": [
        {
          "internalType": "bytes32",
          "name": "deviceId",
          "type": "bytes32"
        }
      ],
      "name": "registerDevice",
      "outputs": [],
      "stateMutability": "nonpayable",
      "type": "function"
    },
    {
      "inputs": [
        {
          "internalType": "bytes32",
          "name": "deviceId",
          "type": "bytes32"
        }
      ],
      "name": "unregisterDevice",
      "outputs": [],
      "stateMutability": "nonpayable",
      "type": "function"
    },
    {
      "inputs": [
        {
          "internalType": "bytes32",
          "name": "deviceId",
          "type": "bytes32"
        }
      ],
      "name": "checkDevice",
      "outputs": [
        {
          "internalType": "bool",
          "name": "",
          "type": "bool"
        }
      ],
      "stateMutability": "view",
      "type": "function",
      "constant": true
    }
  ],
  "bytecode": "0x608060405234801561001057600080fd5b50610463806100206000396000f3fe608060405234801561001057600080fd5b506004361061004b5760003560e01c8062921e6914610050578063156648801461008057806327258b221461009c578063882ec35a146100cc575b600080fd5b61006a600480360381019061006591906102e1565b6100e8565b6040516100779190610329565b60405180910390f35b61009a600480360381019061009591906102e1565b610111565b005b6100b660048036038101906100b191906102e1565b6101cb565b6040516100c39190610329565b60405180910390f35b6100e660048036038101906100e191906102e1565b6101eb565b005b600080600083815260200190815260200160002060009054906101000a900460ff169050919050565b60008082815260200190815260200160002060009054906101000a900460ff16610170576040517f08c379a0000000000000000000000000000000000000000000000000000000008152600401610167906103a1565b60405180910390fd5b600080600083815260200190815260200160002060006101000a81548160ff021916908315150217905550807f0bbce76f14864532511f1587f2809baad3cfe64edb5f1bab3c95f4949d9c0ef060405160405180910390a250565b60006020528060005260406000206000915054906101000a900460ff1681565b60008082815260200190815260200160002060009054906101000a900460ff161561024b576040517f08c379a00000000000000000000000000000000000000000000000000000000081526004016102429061040d565b60405180910390fd5b600160008083815260200190815260200160002060006101000a81548160ff021916908315150217905550807f543b01d8fc03bd0f400fb055a7c379dc964b3c478f922bb2e198fa9bccb8e71460405160405180910390a250565b600080fd5b6000819050919050565b6102be816102ab565b81146102c957600080fd5b50565b6000813590506102db816102b5565b92915050565b6000602082840312156102f7576102f66102a6565b5b6000610305848285016102cc565b91505092915050565b60008115159050919050565b6103238161030e565b82525050565b600060208201905061033e600083018461031a565b92915050565b600082825260208201905092915050565b7f446576696365206e6f7420726567697374657265642e00000000000000000000600082015250565b600061038b601683610344565b915061039682610355565b602082019050919050565b600060208201905081810360008301526103ba8161037e565b9050919050565b7f44657669636520616c726561647920726567697374657265642e000000000000600082015250565b60006103f7601a83610344565b9150610402826103c1565b602082019050919050565b60006020820190508181036000830152610426816103ea565b905091905056fea264697066735822122070d378e31e3453aaf535ddda437d6990ac55803dbf0f0d23125850c33cca5aef64736f6c63430008120033",
  "immutableReferences": {},
  "source": "// SPDX-License-Identifier: MIT\npragma solidity ^0.8.18;\n\n\n/**\n * @title IoTDeviceAuth\n * @dev Manages authentication and registration of IoT devices.\n */\ncontract IoTDeviceAuth {\n    // Mapping of device ID to registration status\n    mapping(bytes32 => bool) public isRegistered;\n\n    // Event for device registration\n    event DeviceRegistered(bytes32 indexed deviceId);\n    // Event for device unregistration\n    event DeviceUnregistered(bytes32 indexed deviceId);\n\n    /**\n     * @dev Registers a new IoT device.\n     * @param deviceId The unique identifier of the device.\n     */\n    function registerDevice(bytes32 deviceId) external {\n        require(!isRegistered[deviceId], \"Device already registered.\");\n        isRegistered[deviceId] = true;\n        emit DeviceRegistered(deviceId);\n    }\n\n    /**\n     * @dev Unregisters an IoT device.\n     * @param deviceId The unique identifier of the device.\n     */\n    function unregisterDevice(bytes32 deviceId) external {\n        require(isRegistered[deviceId], \"Device not registered.\");\n        isRegistered[deviceId] = false;\n        emit DeviceUnregistered(deviceId);\n    }\n\n    /**\n     * @dev Checks if a device is registered.\n     * @param deviceId The unique identifier of the device.\n     * @return bool True if the device is registered, false otherwise.\n     */\n    function checkDevice(bytes32 deviceId) public view returns (bool) {\n        return isRegistered[deviceId];\n    }\n}",
  "sourcePath": "/Users/omarmezzour/Desktop/Secure Internet of Things (IoT) Network with Blockchain/contracts/IoTDeviceAuth.sol",
  "compiler": {
    "name": "solc",
    "version": "0.8.18+commit.87f61d96.Emscripten.clang"
  },
  "schemaVersion": "3.4.16",
  "updatedAt": "2024-05-11T17:55:25.640Z",
  "networkType": "ethereum",
  "devdoc": {
    "details": "Manages authentication and registration of IoT devices.",
    "kind": "dev",
    "methods": {
      "checkDevice(bytes32)": {
        "details": "Checks if a device is registered.",
        "params": {
          "deviceId": "The unique identifier of the device."
        },
        "returns": {
          "_0": "bool True if the device is registered, false otherwise."
        }
      },
      "registerDevice(bytes32)": {
        "details": "Registers a new IoT device.",
        "params": {
          "deviceId": "The unique identifier of the device."
        }
      },
      "unregisterDevice(bytes32)": {
        "details": "Unregisters an IoT device.",
        "params": {
          "deviceId": "The unique identifier of the device."
        }
      }
    },
    "title": "IoTDeviceAuth",
    "version": 1
  },
  "userdoc": {
    "kind": "user",
    "methods": {},
    "version": 1
  }
}