{
  "contractName": "IoTIntegrationHelper",
  "abi": [
    {
      "inputs": [
        {
          "internalType": "address",
          "name": "_dataStorageAddress",
          "type": "address"
        },
        {
          "internalType": "address",
          "name": "_deviceAuthAddress",
          "type": "address"
        }
      ],
      "stateMutability": "nonpayable",
      "type": "constructor"
    },
    {
      "anonymous": false,
      "inputs": [
        {
          "indexed": true,
          "internalType": "bytes32",
          "name": "deviceId",
          "type": "bytes32"
        },
        {
          "indexed": false,
          "internalType": "string",
          "name": "processedData",
          "type": "string"
        }
      ],
      "name": "DataProcessed",
      "type": "event"
    },
    {
      "inputs": [
        {
          "internalType": "bytes32",
          "name": "deviceId",
          "type": "bytes32"
        },
        {
          "internalType": "string",
          "name": "rawData",
          "type": "string"
        }
      ],
      "name": "processAndStoreData",
      "outputs": [],
      "stateMutability": "nonpayable",
      "type": "function"
    },
    {
      "inputs": [
        {
          "internalType": "bytes32",
          "name": "deviceId",
          "type": "bytes32"
        }
      ],
      "name": "getConvertedData",
      "outputs": [
        {
          "internalType": "string",
          "name": "",
          "type": "string"
        }
      ],
      "stateMutability": "view",
      "type": "function",
      "constant": true
    }
  ],
  "bytecode": "0x608060405234801561001057600080fd5b50604051610a2e380380610a2e8339818101604052810190610032919061011d565b816000806101000a81548173ffffffffffffffffffffffffffffffffffffffff021916908373ffffffffffffffffffffffffffffffffffffffff16021790555080600160006101000a81548173ffffffffffffffffffffffffffffffffffffffff021916908373ffffffffffffffffffffffffffffffffffffffff160217905550505061015d565b600080fd5b600073ffffffffffffffffffffffffffffffffffffffff82169050919050565b60006100ea826100bf565b9050919050565b6100fa816100df565b811461010557600080fd5b50565b600081519050610117816100f1565b92915050565b60008060408385031215610134576101336100ba565b5b600061014285828601610108565b925050602061015385828601610108565b9150509250929050565b6108c28061016c6000396000f3fe608060405234801561001057600080fd5b50600436106100365760003560e01c80636a2b4e501461003b578063d71262e614610057575b600080fd5b610055600480360381019061005091906104b8565b610087565b005b610071600480360381019061006c9190610518565b61027d565b60405161007e91906105d5565b60405180910390f35b600160009054906101000a900473ffffffffffffffffffffffffffffffffffffffff1673ffffffffffffffffffffffffffffffffffffffff1662921e69846040518263ffffffff1660e01b81526004016100e19190610606565b602060405180830381865afa1580156100fe573d6000803e3d6000fd5b505050506040513d601f19601f820116820180604052508101906101229190610659565b610161576040517f08c379a0000000000000000000000000000000000000000000000000000000008152600401610158906106d2565b60405180910390fd5b60006101b083838080601f016020809104026020016040519081016040528093929190818152602001838380828437600081840152601f19601f820116905080830192505050505050506103ff565b905060008054906101000a900473ffffffffffffffffffffffffffffffffffffffff1673ffffffffffffffffffffffffffffffffffffffff166353794a9385836040518363ffffffff1660e01b815260040161020d9291906106f2565b600060405180830381600087803b15801561022757600080fd5b505af115801561023b573d6000803e3d6000fd5b50505050837f359918b271e958dbb99e6c97c073baecd00db2fe58e8fac9d379190ebb3a71cb8260405161026f91906105d5565b60405180910390a250505050565b6060600160009054906101000a900473ffffffffffffffffffffffffffffffffffffffff1673ffffffffffffffffffffffffffffffffffffffff1662921e69836040518263ffffffff1660e01b81526004016102d99190610606565b602060405180830381865afa1580156102f6573d6000803e3d6000fd5b505050506040513d601f19601f8201168201806040525081019061031a9190610659565b610359576040517f08c379a0000000000000000000000000000000000000000000000000000000008152600401610350906106d2565b60405180910390fd5b60008054906101000a900473ffffffffffffffffffffffffffffffffffffffff1673ffffffffffffffffffffffffffffffffffffffff166354f6127f836040518263ffffffff1660e01b81526004016103b29190610606565b600060405180830381865afa1580156103cf573d6000803e3d6000fd5b505050506040513d6000823e3d601f19601f820116820180604052508101906103f89190610843565b9050919050565b6060819050919050565b6000604051905090565b600080fd5b600080fd5b6000819050919050565b6104308161041d565b811461043b57600080fd5b50565b60008135905061044d81610427565b92915050565b600080fd5b600080fd5b600080fd5b60008083601f84011261047857610477610453565b5b8235905067ffffffffffffffff81111561049557610494610458565b5b6020830191508360018202830111156104b1576104b061045d565b5b9250929050565b6000806000604084860312156104d1576104d0610413565b5b60006104df8682870161043e565b935050602084013567ffffffffffffffff811115610500576104ff610418565b5b61050c86828701610462565b92509250509250925092565b60006020828403121561052e5761052d610413565b5b600061053c8482850161043e565b91505092915050565b600081519050919050565b600082825260208201905092915050565b60005b8381101561057f578082015181840152602081019050610564565b60008484015250505050565b6000601f19601f8301169050919050565b60006105a782610545565b6105b18185610550565b93506105c1818560208601610561565b6105ca8161058b565b840191505092915050565b600060208201905081810360008301526105ef818461059c565b905092915050565b6106008161041d565b82525050565b600060208201905061061b60008301846105f7565b92915050565b60008115159050919050565b61063681610621565b811461064157600080fd5b50565b6000815190506106538161062d565b92915050565b60006020828403121561066f5761066e610413565b5b600061067d84828501610644565b91505092915050565b7f446576696365206e6f7420726567697374657265642e00000000000000000000600082015250565b60006106bc601683610550565b91506106c782610686565b602082019050919050565b600060208201905081810360008301526106eb816106af565b9050919050565b600060408201905061070760008301856105f7565b8181036020830152610719818461059c565b90509392505050565b600080fd5b7f4e487b7100000000000000000000000000000000000000000000000000000000600052604160045260246000fd5b61075f8261058b565b810181811067ffffffffffffffff8211171561077e5761077d610727565b5b80604052505050565b6000610791610409565b905061079d8282610756565b919050565b600067ffffffffffffffff8211156107bd576107bc610727565b5b6107c68261058b565b9050602081019050919050565b60006107e66107e1846107a2565b610787565b90508281526020810184848401111561080257610801610722565b5b61080d848285610561565b509392505050565b600082601f83011261082a57610829610453565b5b815161083a8482602086016107d3565b91505092915050565b60006020828403121561085957610858610413565b5b600082015167ffffffffffffffff81111561087757610876610418565b5b61088384828501610815565b9150509291505056fea2646970667358221220df3b878ee4a4c7a59efe177858a1e0aaa97ad9b227286f8a2bc61d38c507709b64736f6c63430008120033",
  "immutableReferences": {},
  "source": "// SPDX-License-Identifier: MIT\npragma solidity ^0.8.18;\n\nimport \"./IoTDataStorage.sol\";\nimport \"./IoTDeviceAuth.sol\";\n\n\n/**\n * @title IoTIntegrationHelper\n * @dev Facilitates interactions between blockchain systems and IoT devices.\n */\ncontract IoTIntegrationHelper {\n    IoTDataStorage private dataStorage;\n    IoTDeviceAuth private deviceAuth;\n\n    // Constructor to set the IoT contracts' addresses\n    constructor(address _dataStorageAddress, address _deviceAuthAddress) {\n        dataStorage = IoTDataStorage(_dataStorageAddress);\n        deviceAuth = IoTDeviceAuth(_deviceAuthAddress);\n    }\n\n    // Event for successful data processing\n    event DataProcessed(bytes32 indexed deviceId, string processedData);\n\n    /**\n     * @dev Processes and stores data from IoT devices, converting if necessary.\n     * @param deviceId The unique identifier of the IoT device.\n     * @param rawData The raw data from the IoT device, might require conversion or validation.\n     */\n    function processAndStoreData(bytes32 deviceId, string calldata rawData) external {\n        require(deviceAuth.checkDevice(deviceId), \"Device not registered.\");\n        \n        // Example of data conversion (details depend on specific needs)\n        string memory convertedData = convertData(rawData);\n\n        // Store the processed data\n        dataStorage.storeData(deviceId, convertedData);\n        emit DataProcessed(deviceId, convertedData);\n    }\n\n    /**\n     * @dev Converts raw data to a suitable format for blockchain storage.\n     * @param data The raw data to be converted.\n     * @return string The converted data.\n     */\n    function convertData(string memory data) private pure returns (string memory) {\n        // Actual conversion logic depends on the data format and requirements.\n        return data; // This is a placeholder.\n    }\n\n    /**\n     * @dev Retrieves converted data for a specific IoT device.\n     * @param deviceId The unique identifier of the IoT device.\n     * @return string The converted data.\n     */\n    function getConvertedData(bytes32 deviceId) public view returns (string memory) {\n        require(deviceAuth.checkDevice(deviceId), \"Device not registered.\");\n        return dataStorage.getData(deviceId);\n    }\n}\n",
  "sourcePath": "/Users/omarmezzour/Desktop/Secure Internet of Things (IoT) Network with Blockchain/contracts/IoTIntegrationHelper.sol",
  "compiler": {
    "name": "solc",
    "version": "0.8.18+commit.87f61d96.Emscripten.clang"
  },
  "schemaVersion": "3.4.16",
  "updatedAt": "2024-05-11T17:55:25.633Z",
  "networkType": "ethereum",
  "devdoc": {
    "details": "Facilitates interactions between blockchain systems and IoT devices.",
    "kind": "dev",
    "methods": {
      "getConvertedData(bytes32)": {
        "details": "Retrieves converted data for a specific IoT device.",
        "params": {
          "deviceId": "The unique identifier of the IoT device."
        },
        "returns": {
          "_0": "string The converted data."
        }
      },
      "processAndStoreData(bytes32,string)": {
        "details": "Processes and stores data from IoT devices, converting if necessary.",
        "params": {
          "deviceId": "The unique identifier of the IoT device.",
          "rawData": "The raw data from the IoT device, might require conversion or validation."
        }
      }
    },
    "title": "IoTIntegrationHelper",
    "version": 1
  },
  "userdoc": {
    "kind": "user",
    "methods": {},
    "version": 1
  }
}